:020000040800F2
:1000000000060020F50500084D2400080124000822
:10001000292400080124000821240008F70500080D
:10002000F7050008F7050008F7050008915F0008CC
:10003000F7050008F7050008F7050008F7050008B0
:10004000F7050008F7050008F7050008F7050008A0
:10005000F7050008F70500086563000891630008CC
:10006000BD630008E963000815640008F70500088F
:10007000F7050008F7050008F7050008F705000870
:10008000F7050008F7050008F7050008F705000860
:10009000F7050008F7050008F705000841640008A7
:1000A000F7050008F7050008F7050008F705000840
:1000B000F7050008F7050008F7050008F705000830
:1000C000F7050008F7050008F7050008F705000820
:1000D000F7050008F70500082D650008F70500087A
:1000E000A5640008F7050008F7050008F7050008F3
:1000F000F7050008F7050008F7050008F7050008F0
:10010000F7050008F705000841650008F705000835
:10011000F7050008F7050008F7050008F7050008CF
:10012000F7050008F7050008F7050008F7050008BF
:10013000F7050008F7050008F7050008F7050008AF
:10014000F7050008F7050008F7050008F70500089F
:10015000F7050008F7050008F7050008F70500088F
:10016000F7050008F7050008F7050008F70500087F
:10017000F705000845570008F7050008F7050008CF
:10018000F7050008F7050008F7050008F70500085F
:10019000F7050008F7050008F7050008F70500084F
:1001A000F7050008F7050008F7050008F70500083F
:1001B00019650008F7050008F7050008F7050008AD
:1001C000F7050008F7050008F7050008F70500081F
:1001D000F705000831570008F7050008F705000883
:1001E000F7050008F7050008F7050008F7050008FF
:1001F000F7050008F7050008F7050008F7050008EF
:10020000F7050008F7050008F7050008F7050008DE
:10021000F7050008F7050008F7050008F7050008CE
:10022000F7050008F7050008B14B0008F7050008BE
:10023000F7050008F7050008F7050008F7050008AE
:10024000F7050008F7050008F7050008F70500089E
:10025000F7050008F7050008F7050008F70500088E
:10026000F7050008F7050008F7050008F70500087E
:10027000F7050008F7050008F7050008F70500086E
:10028000F7050008F7050008F7050008F70500085E
:10029000F7050008F7050008F7050008F70500084E
:1002A000F7050008F7050008F7050008F70500083E
:1002B000F7050008F7050008F7050008F70500082E
:1002C000F7050008F7050008F7050008F70500081E
:1002D000F7050008F7050008F7050008F70500080E
:1002E000D9070008E1200008D92300080000000019
:1002F00053B94AB9002908BF00281CBF4FF0FF318D
:100300004FF0FF3000F074B9ADF1080C6DE904CE88
:1003100000F006F8DDF804E0DDE9022304B07047E0
:100320002DE9F047089D04468E46002B4DD18A42A8
:10033000944669D9B2FA82F252B101FA02F3C2F1DB
:10034000200120FA01F10CFA02FC41EA030E94406C
:100350004FEA1C48210CBEFBF8F61FFA8CF708FB8D
:1003600016E341EA034306FB07F199420AD91CEB65
:10037000030306F1FF3080F01F81994240F21C8197
:10038000023E63445B1AA4B2B3FBF8F008FB1033DF
:1003900044EA034400FB07F7A7420AD91CEB040414
:1003A00000F1FF3380F00A81A74240F207816444E4
:1003B000023840EA0640E41B00261DB1D440002369
:1003C000C5E900433146BDE8F0878B4209D9002DCD
:1003D00000F0EF800026C5E9000130463146BDE857
:1003E000F087B3FA83F6002E4AD18B4202D38242C1
:1003F00000F2F980841A61EB030301209E46002D70
:10040000E0D0C5E9004EDDE702B9FFDEB2FA82F2C4
:10041000002A40F09280A1EB0C014FEA1C471FFA22
:100420008CFE0126200CB1FBF7F307FB131140EA09
:1004300001410EFB03F0884208D91CEB010103F1D6
:10044000FF3802D2884200F2CB804346091AA4B298
:10045000B1FBF7F007FB101144EA01440EFB00FE6C
:10046000A64508D91CEB040400F1FF3102D2A645D1
:1004700000F2BB800846A4EB0E0440EA03409CE770
:10048000C6F12007B34022FA07FC4CEA030C20FA1D
:1004900007F401FA06F31C43F9404FEA1C4900FA3D
:1004A00006F3B1FBF9F8200C1FFA8CFE09FB1811BA
:1004B00040EA014108FB0EF0884202FA06F20BD92D
:1004C0001CEB010108F1FF3A80F08880884240F27D
:1004D0008580A8F102086144091AA4B2B1FBF9F0C1
:1004E00009FB101144EA014100FB0EFE8E4508D9BC
:1004F0001CEB010100F1FF346CD28E456AD9023841
:10050000614440EA0840A0FB0294A1EB0E01A14225
:10051000C846A64656D353D05DB1B3EB080261EB93
:100520000E0101FA07F722FA06F3F1401F43C5E96D
:10053000007100263146BDE8F087C2F12003D840A3
:100540000CFA02FC21FA03F3914001434FEA1C47E5
:100550001FFA8CFEB3FBF7F007FB10360B0C43EAD7
:10056000064300FB0EF69E4204FA02F408D91CEB87
:10057000030300F1FF382FD29E422DD90238634485
:100580009B1B89B2B3FBF7F607FB163341EA034125
:1005900006FB0EF38B4208D91CEB010106F1FF3874
:1005A00016D28B4214D9023E6144C91A46EA00466B
:1005B00038E72E46284605E70646E3E61846F8E6FD
:1005C0004B45A9D2B9EB020864EB0C0E0138A3E746
:1005D0004646EAE7204694E74046D1E7D0467BE727
:1005E000023B614432E7304609E76444023842E79F
:1005F000704700BF02E000F000F8FEE772B638482E
:1006000080F30888374880F30988374837490860FD
:1006100040F20000CCF200004EF63471CEF2000140
:100620000860BFF34F8FBFF36F8F40F20000C0F23E
:10063000F0004EF68851CEF200010860BFF34F8FF4
:10064000BFF36F8F4FF00000E1EE100A4EF63C71E1
:10065000CEF200010860062080F31488BFF36F8F8C
:1006600004F098FA04F03AFA05F0FCFB4FF055302C
:100670001F491B4A91423CBF41F8040BFAE71D4950
:10068000184A91423CBF41F8040BFAE71A491B4A49
:100690001B4B9A423EBF51F8040B42F8040BF8E79B
:1006A00000201849184A91423CBF41F8040BFAE770
:1006B00004F052FA05F046FC144C154DAC4203DA36
:1006C00054F8041B8847F9E700F050F8114C124D1C
:1006D000AC4203DA54F8041B8847F9E704F03ABA4D
:1006E00000060020002200200000000808ED00E0C5
:1006F0000000002000060020706D0008002200208D
:10070000C8220020C8220020B04A0020E0020008D1
:10071000EC020008EC020008EC0200082DE9F04FA2
:100720002DED108AC1F80CD0D0F80CD0BDEC108A99
:10073000BDE8F08F002383F311882846A0470020EE
:1007400003F074FBFEE703F08DFA00DFFEE7000024
:10075000054B10B504460360806810B103685B6800
:100760009847204610BD00BF7868000838B504F0EF
:10077000DBF8054604F0A8F90446F0B9144B9D4295
:100780001DD001339D4241F2883512BF0446002539
:100790000124002004F0D2F80CB100F09FF80D4CB9
:1007A00000F010FF00F084FD204601F0D1FA40B9BE
:1007B00044F6206003F040FBF6E70025E9E7054634
:1007C000E7E7284600F038F900F088F8F9E700BFBD
:1007D000010007B0C82200200448054B054A036009
:1007E00000230549836005F005BF00BFC822002033
:1007F00078680008002500205107000808B500F0BF
:1008000023FDA0F120035842584108BD07B504213B
:1008100001900DEB010000F035FD03B05DF804FB25
:1008200007B541F21203022101A8ADF8043000F02F
:1008300029FD03B05DF804FB38B5302383F311883C
:10084000174803680BB103F0D5FB0023154A4FF49A
:100850007A71134803F0C4FB002383F31188124C10
:10086000236813B12368013B2360636813B1636895
:10087000013B63600D4D2B7833B963687BB902206F
:1008800000F0E0FD322363602B78032B07D163680F
:100890002BB9022000F0D6FD4FF47A73636038BDA7
:1008A00058230020390800087824002070230020F5
:1008B000084B187003280CD8DFE800F00805020880
:1008C000022000F0B7BD022000F0AABD024B0022BA
:1008D0005A6070477023002078240020F7B54E48F6
:1008E00001A901F0ADFB002800F094804B4B4C4A6D
:1008F0001C461968013100F08A8004339342F8D114
:100900006268484B9A4240F28280474B9B6803F1F1
:10091000006303F500339A4279D2002000F0EEFC28
:100920000220FFF7C5FF414B00219A6C99641A6FB2
:1009300019671A6FDA6CD9645A6F59675A6F1A6D52
:1009400019659A6F99679B6F394BD3F8802042F0F5
:100950000062C3F88020D3F8802022F00062C3F840
:100960008020D3F88020D3F8802042F00072C3F8B2
:100970008020D3F8802022F00072C3F88020D3F8C2
:10098000803072B64FF0E023C3F8084DD4E900047C
:10099000BFF34F8FBFF36F8F264AC2F88410BFF3A7
:1009A0004F8F536923F480335361BFF34F8FD2F8D5
:1009B000803043F6E076C3F3C905C3F34E335B01E1
:1009C00003EA060C29464CEA81770139C2F87472B1
:1009D000F9D2203B13F1200FF2D1BFF34F8FBFF3B9
:1009E0006F8FBFF34F8FBFF36F8F536923F40033C3
:1009F00053610023C2F85032BFF34F8FBFF36F8FA4
:100A0000302383F31188854680F308882047024805
:100A100000F076FE03B0F0BDC822002000000208FE
:100A200020000208FFFF01080022002000450258B4
:100A30000044025800ED00E02DE9F04FB04B9DB0AE
:100A40002022FF21079014A89E68DB68069300F01F
:100A500063FDAC4A1378A3B90121AB481170036060
:100A6000302383F3118803680BB103F0C3FA00232A
:100A7000A64A4FF47A71A44803F0B2FA002383F334
:100A80001188079B13B1A24B079A1A60A14A1378E9
:100A9000032B03D0002313709D4A53600023079D4E
:100AA0001F469B46CDE90433012000F0C3FC25B16D
:100AB000974B1B68002B00F05783002000F0C4FB0D
:100AC0000C900C9B002BF2DB012000F0A9FC0C9B8E
:100AD000213B1F2BE8D801A252F823F05D0B000840
:100AE000850B00081B0C0008A90A0008A90A0008C9
:100AF000A90A0008C90E0008E3100008850F0008C5
:100B00006110000887100008AD100008A90A00084D
:100B1000BF100008A90A00082B110008FD0B0008EF
:100B2000A90A00086F110008AF0C0008E70D0008C3
:100B3000A90A0008D90F0008A90A0008A90A000894
:100B4000A90A0008A90A0008A90A0008A90A0008B9
:100B5000A90A0008A90A00081B0C00080220FFF7D8
:100B60004DFE002840F02B83079B0221059A0FA819
:100B7000002A08BF1D4641F21233ADF83C3000F0A8
:100B800081FB91E74FF47A7000F05EFB041EEBDB13
:100B90000220FFF733FE0028E6D0013C052C00F2CE
:100BA0001083DFE804F0030A0D1013370523042136
:100BB0000FA80F9300F066FB17E004215048F9E7F7
:100BC00004215548F6E704215448F3E74FF01C0888
:100BD000404608F1040800F093FB04210F900FA891
:100BE00000F050FBB8F12C0FF2D10120049B4FF024
:100BF000000B00FA04F41C43E3B2049300F0D8FCA9
:100C00002FB1049B03F00B030B2B08BF0025FFF74C
:100C100007FE49E704214248CCE7002FA4D0049BFB
:100C200003F00B030B2B9FD10220FFF7E7FD0446D7
:100C3000002899D00120002700F060FB0220FFF778
:100C400037FE5FFA87F8404600F068FB0546B0B112
:100C50000C9940460137A1F140025142514100F048
:100C60006DFB0028EDD10546059441F212130221D7
:100C70000FA82746ADF83C3000F004FB14E72E46E1
:100C80000120FFF715FE1E4B9B68B34207D9304683
:100C900000F036FB013040F097820436F3E700267F
:100CA0001C4B274605941E70194B5E60A6E7002F6B
:100CB0003FF45AAF049B03F00B030B2B7FF454AFAC
:100CC00064210DA800F0D4FA804600287FF44CAFD0
:100CD0000220FFF793FD044600283FF445AFDFF8FC
:100CE00048908DF82F80D9F82420D9F8203053432C
:100CF0000D9A93421AD20B4800F0AEFB34E700BFC6
:100D00000022002074240020582300203908000805
:100D100078240020702300200422002008220020D4
:100D20000C22002038670008C8220020BE48474631
:100D3000C24600F091FBFFF773FD01210DF12F007A
:100D400000F0A0FA0D9B534541D900230EAA394665
:100D50004846CDE90E330FAB00F0D6FC002884D016
:100D600001F07CFB0E9B00EB030801210DF12F002D
:100D700000F088FA01F072FB404520D9484600F0A7
:100D8000F9FE80B964210D9BA848013701FB0AF1E7
:100D9000B1FBF3F18DF82F10C9B200F05DFBD9F86B
:100DA00020309A44CEE701F059FB0F9B1844404590
:100DB0003FF65BAF01F052FB0E9B00EB03080E9B6E
:100DC0004FF47A70A3FB000303F036F8CDE76423F9
:100DD00001210DF12F0027468DF82F3000F052FA37
:100DE000002306930AE7002F3FF4BEAE049B03F0F6
:100DF0000B030B2B7FF4B8AE0220FFF759FD322016
:100E000000F022FA041EFFF6AFAE069BA046E318E0
:100E10000893874B089ADB689A423FF6A5AEB4F573
:100E2000807F3FF7A1AEDFF80CA24FF000094C45E0
:100E30000EDD4FF47A7000F007FA0C900C9B002B3B
:100E4000FFF692AE0C9B09F101090AF8013BEEE7AF
:100E5000C820FFF7D3FC044600283FF485AE0027E6
:100E6000DFF8D491CDE90E77B8F1000F02D1274613
:100E7000089BB6E70FAB6F4A0699484602930EAB44
:100E80003A44394401930DAB0093434601F044F8D2
:100E900000283FF4EAAE01F0E3FA0D9B8A46099080
:100EA0001F44A8EB030801F0DBFA099A0E9B9B187C
:100EB0004AF10002834272EB0103F4D2484600F08B
:100EC00059FE0028EFD1CFE7002F3FF44DAE049B31
:100ED00003F00B030B2B7FF447AE0220FFF7E8FC77
:100EE000322000F0B1F9B0F10008FFF63DAE18F085
:100EF00003047FF439AE4E4A08EB0603926893422E
:100F00003FF632AEB8F5807F3FF72EAEDFF8249182
:100F1000A0450DDD4FF47A7000F096F90C900C9B13
:100F2000002BFFF621AE0C9B013409F8013BEFE7E3
:100F3000C820FFF763FC044600283FF415AE1F2EBF
:100F400011D8C6F1200214AB26F0030039494245FE
:100F5000184428BF4246089200F0ACFA089AFF21D4
:100F6000344800F0D9FAC8F38702324930464FEAD4
:100F7000A80900F0D9FA074600283FF476AE06EB40
:100F800089063BE60220FFF739FC00283FF4ECAD70
:100F900000F0F2F900283FF4E7AD0024A046244B0E
:100FA0009B68A34258D91F2C11D8149B01330ED033
:100FB00024F003031CAA134453F8203C0F9340462B
:100FC00004220FA9043401F093F88046E7E7204695
:100FD00000F096F90F90F2E764210EA800F048F9AE
:100FE000044600287FF4C0AD0220FFF707FC00286C
:100FF0003FF4BAAD0E9BA046DFF83CA003F0030916
:101000000E99A1EB0901A14218D9214604230FAA88
:10101000504600F0CDFF404604220FA901F068F8C9
:1010200004348046ECE700BF5D6700087567000880
:101030000022002074230020C8220020B9F1000FF4
:101040000AD04B460FAA624800F0B2FF40464A461B
:101050000FA901F04DF880464046FFF7D7FBCDE5DC
:10106000002364210FA80F9300F002F900287FF4F9
:101070007BAD0220FFF7C2FB00283FF475AD0F984F
:1010800000F070F9E9E7002364210FA80F9300F046
:10109000EFF800287FF468AD0220FFF7AFFB0028CF
:1010A0003FF462AD0F9800F05FF9D6E70220FFF73A
:1010B000A5FB00283FF458AD00F06EF9CDE7022003
:1010C000FFF79CFB00283FF44FAD0FA9142000F060
:1010D00069F90890FFF79AFB08990FA800F0D2F879
:1010E0008CE5322000F0B0F8041EFFF63DADA307FA
:1010F0007FF43AAD374A04EB0B03926893423FF614
:1011000033AD0220FFF77AFB00283FF42DAD24F029
:1011100003045C44A3453FF471AD58460BF1040B46
:1011200000F0EEF8FFF772FBF4E74FF47A70FFF788
:1011300065FB00283FF418AD00F01EF9002845D0EB
:10114000149B01330BD0082214A9002000F0ECF905
:1011500000283BD02022FF2114A800F0DDF9FFF782
:101160005FFB1D4802F068FE1DB0BDE8F08F002F48
:101170003FF4FAAC049B03F00B030B2B7FF4F4ACAD
:10118000002364210FA80F9300F072F80446002892
:101190007FF4EAAC0220FFF731FB804600283FF4E1
:1011A000E3ACFFF73DFB41F2883002F045FE0F98BB
:1011B00000F04AFA4746254600F0FAF974E407467B
:1011C0001CE54FF0000BCFE405944EE53C464CE5A2
:1011D000C822002000220020A08601002DE9F84F3F
:1011E0004FF47A7306460D46002402FB03F7DFF83E
:1011F0005080DFF8509098F900305FFA84FA5A1C5A
:1012000001D0A34212D159F824002A46314603687E
:10121000D3F820B03B46D847854207D1074B012081
:1012200083F800A0BDE8F88F0124E4E7002CFBD090
:101230004FF4FA7002F000FE0020F3E7C42400200F
:101240001022002014220020002307B502460121AD
:101250000DF107008DF80730FFF7C0FF20B19DF8B2
:10126000070003B05DF804FB4FF0FF30F9E7000022
:101270000A46042108B5FFF7B1FF80F00100C0B2B3
:10128000404208BD074B0A4630B41978064B53F864
:101290002140014623682046DD69044BAC4630BC42
:1012A000604700BFC424002014220020A086010053
:1012B00070B5104C0025104E03F0F2F82080306815
:1012C000238883420CD800252088013803F0E4F8F5
:1012D00023880544013BB5F5802F2380F4D370BDEE
:1012E00003F0DAF8336805440133B5F5003F3360A5
:1012F000E5D3E8E7C62400208024002003F0AEB93F
:1013000000F1006000F500300068704700F10060F7
:10131000920000F5003003F025B90000054B1A6873
:10132000054B1B889B1A834202D9104403F0B4B8C2
:101330000020704780240020C624002038B50446D1
:10134000074D29B128682044BDE8384003F0BCB8F7
:101350002868204403F0A6F80028F3D038BD00BF69
:10136000802400200020704700F1FF5000F58F100E
:10137000D0F8000870470000064991F8243033B1D6
:1013800000230822086A81F82430FFF7BFBF01203C
:10139000704700BF84240020014B1868704700BFCD
:1013A0000010005C1B4B0246F0B518681A4BC0F3E6
:1013B0000B06000C1F885C68BE4293F9085003D0EE
:1013C0009F89BE4203D10C335C6893F90850042610
:1013D000124B1F880433874208BF13F9025C013E99
:1013E000F7D1013A013C0B460A44934207D214F963
:1013F000016F581C2EB1034600F8016CF5E7184642
:1014000005E02C2482421C7001D9981C5D70401AA2
:10141000F0BD00BF0010005C1C220020A067000887
:10142000022803D1024B4FF400129A61704700BFAB
:1014300000180258022802D1014B20229A617047FD
:1014400000180258022804D1024A536983F020038D
:1014500053617047001802580FB4124B30B51A7818
:10146000B5B042B90122104910481A704FF46143D7
:101470000B6001F07FFE39AB0C4C389AC82102A8F2
:10148000019300F0BBFF2368C8280246DD6902A96A
:10149000074B28BFC8222046A84735B0BDE83040DA
:1014A00004B07047C8240020CC240020242500204C
:1014B000A0860100002310B5934203D0CC5CC45435
:1014C0000133F9E710BD0000013810B510F9013FF4
:1014D0003BB191F900409C4203D11AB10131013A6C
:1014E000F4E71AB191F90020981A10BD1046FCE7F4
:1014F0000138013910F9013F11F9012F0BB1934265
:10150000F8D0981A7047000003460246D01A12F924
:10151000011B0029FAD1704702440346934202D0CE
:1015200003F8011BFAE770472DE9F8431F4D1446F5
:101530000746884695F8242052BBDFF870909CB38C
:1015400095F824302BB92022FF2148462F62FFF75F
:10155000E3FF95F824004146C0F1080205EB800046
:10156000A24228BF2246D6B29200FFF7A3FF95F809
:101570002430A41B17441E449044E4B2F6B2082E53
:1015800085F82460DBD1FFF7F7FE0028D7D108E00B
:101590002B6A03EB82038342CFD0FFF7EDFE0028D6
:1015A000CBD10020BDE8F8830120FBE78424002094
:1015B000024B1A78024B1A70704700BFC4240020F7
:1015C0001022002038B51A4C1A4D204601F074FE46
:1015D0002946204601F09CFE2D681748D5F890203A
:1015E000D2F8043843F00203C2F8043802F024FCB5
:1015F0001249284601F09AFFD5F89020104DD2F8F4
:101600000438286823F002030E49A042C2F80438C7
:101610004FF4E1330B6001D001F0ACFD6868A042EB
:1016200004D00849BDE8384001F0A4BD38BD00BF72
:10163000002C0020B86A000840420F00C06A000871
:1016400014220020AC2400200C4B70B50C4D044635
:101650001E780C4B55F826209A420DD00A4B0021DB
:1016600018221846FFF758FF0460014655F8260077
:10167000BDE8704001F07EBD70BD00BFC4240020F5
:1016800014220020002C0020AC2400208069704728
:10169000C0697047006A7047406A7047806A704747
:1016A000F0B5ADF2044D0E46054600214FF47F72B1
:1016B00001A80091FFF730FF2C6A744301362B6AB2
:1016C0007343A34216D92B686A46214628465F68B1
:1016D0004FF48063B84770B16A464FF4806312F8E4
:1016E000011BFF290AD1013B9BB2002BF7D104F566
:1016F0008064E4E701200DF2044DF0BD0020FAE71C
:1017000080680368DB69184730B5456A85B00446D0
:101710008D420FD30568CDE90023026A03ABAD6AA1
:101720005143A84720B1206A039BC31A584258412D
:1017300005B030BD0020FBE7F0B5C56987B00446B1
:101740008D4212D30C9F866905687143CDE901373C
:1017500005AB00936D69036AA84720B1A069059B9A
:10176000C31A5842584107B0F0BD0020FBE7000003
:10177000F0B5662389B0002405464FF48076806872
:10178000079403A9CDE90336CDE9054403685B69F5
:101790009847A86822462146036800941F6923469B
:1017A000B847A8689923079403A9CDE90336CDE982
:1017B000054403685B699847A86822462146036888
:1017C00000941D692346A84709B0F0BD254B2DE9BB
:1017D000F04F1B789FB0002504468DF828304FF05D
:1017E0009F0E80684FF00123ADF8295005A9099597
:1017F000CDE905E3CDE9075503685B699847A06823
:1018000003222946036800922A461E690AABB047A4
:1018100028B394F88C20144B9DF8281003EBC203D6
:101820001A7991421BD19DF829205B799A4216D1F1
:10183000A0684FF05A0C0D4B082605A90996CDE972
:1018400005C3CDE9075503685B699847A0682A4638
:101850002946036800961F690AABB84740B90020C3
:1018600048E100BF20670008586800080025000113
:101870000422B1490AA804F0F7FE05460028EED17B
:10188000BDF82C306FF48277A3813B44012BE6D85E
:10189000079605A9CDE90A00A06803685B69984727
:1018A000A0682A462946036800961E690AABB0471D
:1018B0000028D4D0DDE90A361A0202F4706242EA46
:1018C0001662FF2ACBD11B0E26F07F4650222946F6
:1018D000142B26610AA828BF1423A373FFF71CFE4C
:1018E000A068079605A903685B699847A068A37B71
:1018F000294602689B0000930AAB16692A46B04746
:101900000028ACD00B990029A9DBC9086FF07E43F1
:10191000149D4FF0010E994228BF1946C5F30313D9
:101920000EFA03F221FA03F303916161A261E3610C
:10193000002B94D02646A44600274FF002081EAA8A
:10194000C7F3460302EB830353F834AC07F00103FB
:101950001B01DA1D0EFA03F908FA02F2A2EB0902E2
:1019600002EA0A02DA401AD003F108090F330EFA2C
:1019700002F2216A08FA03F30EFA09FBCCF83020D0
:101980008A42A3EB0B0B0BEA0A0A2AFA09F98CF834
:101990002C90A36A88BF2262934288BFA26201375B
:1019A0000CF1100C042FCAD1236A4FF0020C039AD9
:1019B0004FF0010E139F9A4224BFB2FBF3F1616214
:1019C00007F00F0138BF01234FF0090201F10101B7
:1019D00038BF63624900336B33B3531C0EFA02F80D
:1019E000A2F105090CFA03F30EFA09FAA3EB0803B6
:1019F00002F1FF380CFA08F83B40A8EB0A08D34084
:101A000008EA070828FA09F877D0012B77D0022BCB
:101A100077D0032B08BF4FF47A735FFA88F808FB7E
:101A2000033373634B43B36307321036252AD2D195
:101A300015F0C04FC5F3417365D0012B65D0022B63
:101A40000CBF4FF47A634FF47A43C5F3046202FB90
:101A50000333E3664B432367199B9E0758D0062345
:101A600084F8743015F4005F05F00F03C5F3042506
:101A700014BF40220822013305FB02255B00A56745
:101A80005D430A9B9F02E5677FF5E9AE0C9B1A0A4E
:101A900084F88020C3F3421203F01F0384F88820E7
:101AA00084F88130189BC3F3025213F4401F84F86A
:101AB00083207FF4D4AEDE0602D5042A7FF4CFAEB5
:101AC00003F40072002A14BF0122002284F8872048
:101AD00004D0DD0324D5002384F88930179B1A072E
:101AE00022D5002384F88630702384F885300123C2
:101AF00084F88D301FB0BDE8F08F01238DE71023EF
:101B00008BE7802389E710239FE74FF480739CE7DE
:101B1000590701D55023A3E713F0780FA2D09EE612
:101B20009903DBD50123D7E75B07E0D5012384F8D0
:101B300086300523D9E700BFB067000830B58BB009
:101B400000240546806803924FF00122059105A903
:101B5000CDE90624CDE90844026852699047A86897
:101B60000121039B02680091214615692246A8477E
:101B70000BB030BD13B504460DF1070290F8851087
:101B8000FFF7DCFF94F886309DF807001BB100F0EA
:101B9000010002B010BDC043C0F3C010F9E700005F
:101BA00030B54FF001238BB00024054680688DF8D6
:101BB0000F20059105A9CDE90634CDE90844036855
:101BC0005B699847A86801220DF10F010368009432
:101BD0001D692346A8470BB030BD0000F7B5174676
:101BE0000DF1070206461D46FFF7A8FF68B19DF8F4
:101BF000074039469DF82020304624EA05042A4053
:101C000022438DF80720FFF7CBFF03B0F0BD0000A3
:101C100030B54FF4807389B0002405468068039185
:101C200003A9CDE90434CDE9064403685B6998470C
:101C3000A86822462146036800941D692346A847E8
:101C400009B030BD10B5044623682046DB6A9847CA
:101C50000028F9D110BD000010B590F8743004468A
:101C60005BB1FFF7EFFF012394F87410204684F86E
:101C70008E30BDE81040FFF7CBBF012010BD000043
:101C800010B590F87430044653B1FFF7DBFF012321
:101C90002046042184F88E30BDE81040FFF7B8BF1D
:101CA000012010BD70B590F883308AB00446042B33
:101CB00048D10DF10E020521FFF740FF00282FD07B
:101CC0000DF10F0235212046FFF738FF40B32046C3
:101CD0001E4EFFF7C1FF2046FFF7B4FF05AD0FCE44
:101CE0000FC5336805A99DF80E202B609DF80F30B5
:101CF000A06843F002038DF810208DF80F308DF8A6
:101D0000113003685B699847A068002304A9026842
:101D1000009315690222A84728B92046FFF7B0FFB3
:101D200000200AB070BD2046FFF7AAFF0DF10F0298
:101D300035212046FFF702FF0028F1D09DF80F3033
:101D40009B07EDD501202071EBE700BF2467000859
:101D50002DE9F341002304468068A36010B10368B5
:101D60005B6898470025244E244F56F8352001A87B
:101D700039465FFA85F800F051FA019BA06800220D
:101D8000A360019210B103685B689847019810B195
:101D900003685B689847A368DBB141F2883084F838
:101DA0008C8002F049F82046FFF7E2FC1E2002F08A
:101DB00043F82046FFF70AFD054680B994F88C30B9
:101DC0000F4856F83310FFF747FB284602B0BDE82E
:101DD000F0810135032DC8D10A4800F039FB2046B7
:101DE000FFF760FF94F88C30054656F8331008B9B9
:101DF0000548E8E70548E6E758680008E4240020BD
:101E0000B86700082E680008E26700080C68000840
:101E10002DE9F041044688B00F461646FFF71CFF37
:101E20002046FFF70FFF0025C722A0684FF48073FC
:101E3000079503A9CDE90323CDE9055503685B693F
:101E40009847A0682A46294603680095D3F8108071
:101E50002B46C047054630B92046FFF711FF2846FC
:101E600008B0BDE8F081E36E3B60236F3360F3E7B9
:101E70002DE9F041002588B01F4604460E460E9B12
:101E800000F1400CA8463D60016B81B1A9420ED320
:101E900091420CD8B6FBF1FE01FB1E6139B9416BD2
:101EA00090F82C800F9D1960816B296015461030C9
:101EB0006045E9D16DB3AB196269934229D82046D8
:101EC000FFF7CAFE2046FFF7BDFE4FF41453A0688B
:101ED00003A9CDF80C80CDE904360026CDE90666CD
:101EE00003685B699847A0683246314603680096EC
:101EF000D3F810803346C047064620462EB9FFF778
:101F0000BFFE304608B0BDE8F081FFF7B9FE3D6086
:101F1000F7E70026F5E700002DE9F0418669054660
:101F200088B00F46B3429046B1FBF6FC06FB1C1C82
:101F300028BF3346A6EB0C0C00269C45644628BF00
:101F40001C46FFF789FE2846FFF77CFE0222A868A0
:101F500003A9164B0597CDE90323CDE9066603686F
:101F60005B699847A86822464146036800961F6946
:101F70003346B847064628462EB9FFF781FE30465D
:101F800008B0BDE8F081FFF77BFE0E9B1C60AB6FD5
:101F9000AA696343B3FBF2F30F9A1360EA6F109BD5
:101FA0005443AA69B4FBF2F41C60E8E70025000181
:101FB0002DE9F04FCE18436989B004469E420F4682
:101FC000904634D83D464FF00009DFF870A0FFF787
:101FD00039FEAE422FD9A6EB050B94F8803094F869
:101FE000882003A9BBF5806F039394F8813028BF44
:101FF0004FF4806B012AA06808BF03F1FF33CDF8CE
:1020000010A0CDE90559079303685B699847A0685C
:10201000A8EB07030268CDF800B02B44D2F810B04B
:1020200000221146D84718B105F58065D1E7002098
:1020300009B0BDE8F08F0120FAE700BF00ED000312
:10204000F0B5044689B00E46FFF7FCFD94F88750C2
:102050002DB194F889302BB1012B1DD000252846D5
:1020600009B0F0BD94F880200392F02206921A4A3B
:10207000CDE9042394F88130A06803A9079303688D
:102080005B699847A068314603689B699847054695
:10209000642001F0D1FEE2E720460027FFF7DCFDD7
:1020A0002046FFF7CFFD0823812285212046009797
:1020B000FFF794FD054618B92046FFF7E1FDCEE78E
:1020C00094F8803006970393044BCDE9043794F8D5
:1020D0008130013BD0E700BF00ED000300ED0013AD
:1020E000014B024A1A607047E4240020706900081E
:1020F00030B50A44084D91420DD011F8013B5840CB
:10210000082340F30004013B2C4013F0FF0384EA52
:102110005000F6D1EFE730BD2083B8ED70470000E6
:1021200070470000002070470020704713B56C46D0
:1021300000F1140384E8060094E8030083E8050036
:1021400002B010BD0020704713B56C4600F10C03BF
:1021500084E8060094E8030083E8050002B010BD9F
:102160000023C0E90333704782B002AB03E90600E5
:1021700002B07047704700000020704770470000B1
:1021800000207047002070470120704782B0002077
:1021900002A901E90C0002B070470000002070475E
:1021A000002070470B6883634B6843638B68C3638D
:1021B000CB6803640B6943647047000038B5036B58
:1021C0000446154D1B7955F8330001F0AFFCD4E9F6
:1021D0000B231B7955F8331002F1300349689942FB
:1021E00018D000231363E26A5363D4E90B12537CC3
:1021F000581E137C92681B0443EA002313438B632D
:10220000D4E90B131B79303155F83300BDE8384061
:1022100001F020BC38BD00BF0C690008F8B51D4FA7
:1022200005460E4611463868FFF762F978BB7468B8
:102230003B7924B394F82C209A420BD02468F8E719
:102240000122B52100F00EF9736823603B797460B8
:1022500084F82C30482004F0D7F968B100220271CC
:10226000C0E90322C0E90522027A42F007020272A5
:10227000094AC0E90B47026028602846F8BD4020A3
:1022800004F0C2F904460028DAD12C60F5E70023F7
:102290002B60F2E7EC2400201C690008044B10B509
:1022A00004460360406A08B104F0ACF9204610BD52
:1022B000C068000810B50446FFF7F0FF204604F0A0
:1022C0009FF9204610BD000008B519B1FFF776FF51
:1022D000012008BD036B1A79024B53F8320001F05C
:1022E00029FCF5E70C6900082DE9FF41DDF828809D
:1022F0000546174603911FFA88F60293FFF75EFF23
:1023000002ABBAB203A9E86A009600F0BFF804462F
:1023100038B900212846FFF7D7FF204604B0BDE8B2
:10232000F081AFB92B6B05F134011A79134B53F8D7
:102330003200B8F1000F19D101F09AFB80F00104CE
:10234000E4B23346E86ADDE9022100F0C5F8E0E7CF
:10235000029B83B92B6B3A46084805F134011C797E
:10236000039B50F8340001F099FBE7E7029B4246DB
:1023700001F0AAFBE2E70024E3E700BF0C690008D4
:1023800013B504460191FFF719FF019A236B04F17D
:1023900034011879054B53F8300001F0ABFB0021F4
:1023A0002046FFF791FF012002B010BD0C69000824
:1023B00010B50446FFF702FF236B1A79054B53F85B
:1023C000320001F0A5FB00212046FFF77DFF012030
:1023D00010BD00BF0C690008054B064A1A600022B8
:1023E0001A719A60044ADA6040F21F121A8270472A
:1023F000EC2400204F68000800E1F50500F07EBAEB
:1024000000B59BB0EFF3098168226846FFF752F8E8
:10241000EFF30583014B9B6BFEE700BF00ED00E08F
:1024200008B5FFF7EDFF000000B59BB0EFF30981A1
:1024300068226846FFF73EF8EFF30583014B5B6BBC
:10244000FEE700BF00ED00E0FEE70000FEE7000051
:102450000FB408B5029801F07BFCFEE702F004BA65
:1024600002F0DCB938B5084B0446154601754360E7
:102470000A21243002F096FA04F128002A460A21A3
:1024800002F090FA204638BD84690008F8B51E466F
:102490001B6805460C4617461BB9236863B901241F
:1024A00008E0BDF818203146806A02F093FA00284F
:1024B000F3D100242046F8BD21463A46686A02F06E
:1024C000BFFA04460028EAD13368002BF1D0A86A8D
:1024D00002F0EAFAEEE7000038B50D461146044670
:1024E0001A4611B1806A02F09DFA2DB12946606A40
:1024F000BDE8384002F0D0BA38BD000003680021C2
:102500001B68184703790BB1002202711846704707
:1025100003685B681847000003791BB90123037146
:1025200018467047002070477047000010B50446F9
:1025300004F066F8204610BDF0B500F10B04234608
:102540000D46B1FBF2F102FB115707F13006392EAF
:10255000C8BF07F13706954203F8016DF0D2421E5D
:10256000E11A13F8015B9C4202F8015FF9D10844BB
:10257000F0BD00002DE9F04F804687B015464FF0C2
:1025800000090C4614F8013B002B3BD0252B08D04A
:10259000D8F800201946404609F10109D268904751
:1025A00049E14B782D2B06BF8C1C0123002301939E
:1025B00023782B2B06BF01340127002794F800A0B5
:1025C000BAF1300F0CBF01344FF0200A23782A2BC8
:1025D0001CD16178023455F804BB2E2943D12178EF
:1025E00081B12A2921D0661C0020A1F13002344695
:1025F000D2B2092A1DD80A2316F8011B03FB0020BA
:102600000029F2D1484607B0BDE8F08F4FF0000B2B
:1026100014F8011B0029F5D0A1F13002D2B2092A29
:10262000DBD80A2303FB0B2BF2E76178023455F861
:10263000040B01F0DF024C2A17D121780029E1D0E8
:10264000782904F101041FD8622900F20081582979
:102650001AD84E2900F23081442900F0918049298E
:1026600000F08E8010E00020E3E7A1F1410278291C
:10267000D2B209D862290BD8582905D84E293BD89F
:10268000442978D0492976D02E468DF80C1056E092
:10269000A1F16306152EF7D80FF2040C5CF826F0B2
:1026A00031270008772700088926000889260008B6
:1026B000892600088926000877270008892600084F
:1026C000892600088926000889260008892600082E
:1026D00007280008F5280008892600088926000830
:1026E0004727000889260008F128000889260008E5
:1026F00089260008F5280008A1F14F02092AC3D84D
:1027000001A050F822F000BF07280008F5280008B3
:1027100089260008892600088926000889260008DD
:10272000F12800088926000889260008F5280008F5
:102730002E464FF0200A56F8042B8DF80C2003ADDE
:102740000DF10D002BE02E4647F6FF726A4B56F84E
:10275000045B002808BF1046002D08BF1D462A460E
:102760002F18104612F8011B11B1B91A0029F8DA16
:102770004FF0200A13E02E46192A56F8041B02D8FF
:102780002E4656F8041B002936DA2D2249428DF8D0
:102790000C200DF10D000A2203ADFFF7CDFE471B03
:1027A0000199ABEB070323EAE372002945D1002B23
:1027B000C2F1000B1EDD29782D2901D02B290DD166
:1027C000BAF1300F0AD1D8F800304046019209F131
:1027D0000109DB68013F98470135019AD8F80030BC
:1027E000514640460192DB6898471BF1010B019A64
:1027F000F4D191443B4615E01FB12B228DF80C20FB
:10280000C7E703A8C7E708222E4603A856F8041B0B
:10281000C2E7D8F80020404615F8011BD2680193A2
:102820009047019B013BF4D5002FA8BFB9445D46FA
:102830002DB9D94435462146A3E69346DAE7D8F8C0
:10284000003051464046013DDB689847F0E7A1F172
:102850006302152A3FF618AF01A353F822F000BF18
:1028600031270008812700088926000889260008EA
:102870008926000889260008812700088926000883
:10288000892600088926000889260008892600086C
:1028900007280008F528000889260008892600086E
:1028A0004727000889260008F12800088926000823
:1028B00089260008F5280008A1F14F02092A3FF6F1
:1028C000E3AE01A353F822F007280008F52800081A
:1028D000892600088926000889260008892600081C
:1028E000F12800088926000889260008F528000834
:1028F0000A2289E7102287E79C690008F0B505469F
:1029000087B016461F460C4689B14A1E0023294649
:1029100001A800F05FF83A46314601A8FFF72AFE09
:10292000049BA3423CBF0022EA5407B0F0BD0A4614
:10293000ECE70000D0E902239A421FBF4268D1545D
:10294000C36801331ABFC36000206FF001007047F5
:10295000D0E903239A421FBF4268D25C013303616E
:1029600014BF10466FF001007047000003692BB1DF
:10297000013B426803610020D15470476FF00100B1
:102980007047000038B504460846D4E903315B1AA5
:10299000934228BF13461D4663682A461944FEF732
:1029A00089FD236928462B44236138BD38B5044688
:1029B000D0E902301B1A934228BF13461D466368B4
:1029C0002A461844FEF776FDE36828462B44E36068
:1029D00038BD000010B5C0E90223034C0023C0E954
:1029E0000041036110BD00BFA46900088A0710B54B
:1029F00004461DD50378042B1AD143681B682BB1FC
:102A00000522027098472378052B01D102232370F9
:102A1000302383F31188002104F1080001F026FA25
:102A2000002383F31188E069BDE8104002F07EB90D
:102A3000CB0704D50248BDE8104001F089B910BDAC
:102A4000BC69000810B5044C204600F0FBFF034AA7
:102A50000023C4E9062310BD0425002000500052C5
:102A600010B503780446012B12D10E4B98420FD1BA
:102A700002460D49102002F02BF90C4BE0615A6B15
:102A800042F480425A63DA6D42F48042DA65DB6DCB
:102A90006268A36992685A60054A1A601B22DA606C
:102AA00010BD00BF04250020ED2900080045025894
:102AB0001500020182691B2310B5D360D1E90030F3
:102AC00013F44C4406D19B011461D06103F44043DC
:102AD000536110BD0024184313F4406F1461CC6897
:102AE000D4615061F5D08B689361F2E730B58469A9
:102AF0001B25C069E5600068836104F12003C361A0
:102B000002234261013A03614223C36016238362B8
:102B1000CB682261E361D1E90023134312F4406FD3
:102B2000636101D08B68A361C36843F00103C36094
:102B300030BD000030B5D0E90640006804F1200542
:102B40008561C36108234261013A036146230D692F
:102B5000C36016238362CB682261E361D1E900235D
:102B6000134312F4406F43EA854343F0806363618B
:102B700001D08B68A361C36843F00103C36030BD1B
:102B80008069036823F0040310B5CC680360002358
:102B90000361C4618361D1E900430969234343EAC6
:102BA000814343F04063436112B14FF0104313601F
:102BB00010BD000083691A6842F002021A601A68A8
:102BC0009207FCD41A6842F004021A6070470000B1
:102BD0008269936810B5D3609B0704461DD50378BE
:102BE000032B1AD143681B682BB10522027098474A
:102BF0002378052B01D102232370302383F311881E
:102C0000002104F1080001F031F9002383F3118859
:102C1000E069BDE8104002F089B810BD0268436861
:102C20001143016003B1184770470000024A13685E
:102C300043F0C003136070470044004013B50E4CCE
:102C4000204600F08BFA04F1140000234FF40072C8
:102C50000A49009400F048F9094B4FF40072094901
:102C600004F13800009400F0C1F9074A074BC4E9A9
:102C7000172302B010BD00BF24250020902500209E
:102C80002D2C0008902700200044004000E1F505AD
:102C9000037C30B5214C002918BF0C46012B0CD108
:102CA0001F4B984209D11F4B9A6C42F400329A6430
:102CB0001A6F42F400321A671B6F2268036EC16DEF
:102CC00003EB52038466B3FBF2F36268150442BF60
:102CD00023F0070503F0070343EA4503CB60A3682D
:102CE00043F040034B60E36843F001038B6042F420
:102CF000967343F001030B604FF0FF330B625105F5
:102D000005D512F0102205D0B2F1805F04D080F812
:102D1000643030BD7F23FAE73F23F8E7CC69000831
:102D200024250020004502582DE9F047C66D0546D0
:102D30003768F469210734621AD014F0080118BF0B
:102D40004FF48071E20748BF41F02001A3074FF024
:102D5000300348BF41F04001600748BF41F08001A7
:102D600083F31188281DFFF759FF002383F311888F
:102D7000E2050AD5302383F311884FF48061281DC2
:102D8000FFF74CFF002383F311884FF030094FF019
:102D9000000A14F0200838D13B0616D54FF0300950
:102DA00005F1380A200610D589F31188504600F045
:102DB00051F9002836DA0821281DFFF72FFF27F0E8
:102DC00080033360002383F31188790614D56206EB
:102DD00012D5302383F31188D5E913239A4208D101
:102DE0002B6C33B127F040071021281DFFF716FF89
:102DF0003760002383F31188E30618D5AA6E1369A0
:102E0000ABB15069BDE8F047184789F31188736A80
:102E1000284695F86410194000F0BAF98AF3118831
:102E2000F469B6E7B06288F31188F469BAE7BDE8DF
:102E3000F0870000F8B51546826804460B46AA42A2
:102E400000D28568A1692669761AB5420BD2184668
:102E50002A46FEF72FFBA3692B44A3612846A368EB
:102E60005B1BA360F8BD0CD9AF1B18463246FEF7BA
:102E700021FB3A46E1683044FEF71CFBE3683B4423
:102E8000EBE718462A46FEF715FBE368E5E7000086
:102E900083689342F7B50446154600D28568D4E9A5
:102EA0000460361AB5420BD22A46FEF703FB63696B
:102EB0002B4463612846A3685B1BA36003B0F0BD8D
:102EC0000DD93246AF1B0191FEF7F4FA01993A464B
:102ED000E0683144FEF7EEFAE3683B44E9E72A464E
:102EE000FEF7E8FAE368E4E710B50A440024C3619A
:102EF000029B8460C16002610362C0E90000C0E916
:102F0000051110BD08B5D0E90532934201D18268A0
:102F100082B98268013282605A1C426119700021B4
:102F2000D0E904329A4224BFC368436100F0B8FF7D
:102F3000002008BD4FF0FF30FBE7000070B53023E4
:102F400004460E4683F31188A568A5B1A368A2695B
:102F5000013BA360531CA36115782269934224BFEF
:102F6000E368A361E3690BB120469847002383F32C
:102F70001188284607E03146204600F081FF0028EE
:102F8000E2DA85F3118870BD2DE9F74F04460E464D
:102F900017469846D0F81C904FF0300A8AF31188F3
:102FA0004FF0000B154665B12A4631462046FFF723
:102FB00041FF034660B94146204600F061FF00280A
:102FC000F1D0002383F31188781B03B0BDE8F08FA4
:102FD000B9F1000F03D001902046C847019B8BF345
:102FE0001188ED1A1E448AF31188DCE7C160C361C1
:102FF000009B82600362C0E905111144C0E9000032
:1030000001617047F8B504460D461646302383F338
:103010001188A768A7B1A368013BA36063695A1C24
:1030200062611D70D4E904329A4224BFE36863618F
:10303000E3690BB120469847002080F3118807E030
:103040003146204600F01CFF0028E2DA87F31188A1
:10305000F8BD0000D0E9052310B59A4201D182687D
:103060007AB982680021013282605A1C82611C7820
:1030700003699A4224BFC368836100F011FF2046B0
:1030800010BD4FF0FF30FBE72DE9F74F04460E4629
:1030900017469846D0F81C904FF0300A8AF31188F2
:1030A0004FF0000B154665B12A4631462046FFF722
:1030B000EFFE034660B94146204600F0E1FE0028DD
:1030C000F1D0002383F31188781B03B0BDE8F08FA3
:1030D000B9F1000F03D001902046C847019B8BF344
:1030E0001188ED1A1E448AF31188DCE702684368F0
:1030F0001143016003B11847704700001430FFF717
:1031000043BF00004FF0FF331430FFF73DBF000016
:103110003830FFF7B9BF00004FF0FF333830FFF70A
:10312000B3BF00001430FFF709BF00004FF0FF31BC
:103130001430FFF703BF00003830FFF763BF000013
:103140004FF0FF323830FFF75DBF0000012914BF98
:103150006FF0130000207047FFF770BD044B036051
:1031600000234360C0E9023301230374704700BFAA
:10317000E469000810B53023044683F31188FFF793
:1031800087FD02230020237480F3118810BD000006
:1031900038B5C36904460D461BB904210844FFF73E
:1031A000A5FF294604F11400FFF7ACFE002806DA5B
:1031B000201D4FF40061BDE83840FFF797BF38BDD0
:1031C000026843681143016003B11847704700006B
:1031D00013B5406B00F58054D4F8A4381A68117800
:1031E000042914D1017C022911D1197901231289F2
:1031F0008B4013420BD101A94C3002F0EBFBD4F809
:10320000A4480246019B2179206800F0DFF902B052
:1032100010BD0000143002F06DBB00004FF0FF3312
:10322000143002F067BB00004C3002F03FBC0000DD
:103230004FF0FF334C3002F039BC0000143002F084
:103240003BBB00004FF0FF31143002F035BB0000F3
:103250004C3002F00BBC00004FF0FF324C3002F05B
:1032600005BC00000020704710B500F58054D4F86C
:10327000A4381A681178042917D1017C022914D1C5
:103280005979012352898B4013420ED1143002F038
:10329000CDFA024648B1D4F8A4484FF4407361799E
:1032A0002068BDE8104000F07FB910BD406BFFF70B
:1032B000DBBF0000704700007FB5124B01250426DC
:1032C000044603600023057400F18402436029462C
:1032D000C0E902330C4B0290143001934FF4407359
:1032E000009602F07FFA094B04F69442294604F155
:1032F0004C000294CDE900634FF4407302F046FBAA
:1033000004B070BD0C6A0008AD320008D13100086D
:103310000A68302383F311880B790B3342F82300BA
:103320004B79133342F823008B7913B10B3342F8F6
:10333000230000F58053C3F8A4180223037400206F
:1033400080F311887047000038B5037F044613B13D
:1033500090F85430ABB90125201D0221FFF730FF52
:1033600004F114006FF00101257700F0A5FD04F1D0
:103370004C0084F854506FF00101BDE8384000F073
:103380009BBD38BD10B5012104460430FFF718FF7E
:103390000023237784F8543010BD000038B504466C
:1033A0000025143002F036FA04F14C00257702F0C3
:1033B00005FB201D84F854500121FFF701FF204632
:1033C000BDE83840FFF750BF90F8803003F060034D
:1033D000202B06D190F881200023212A03D81F2A10
:1033E00006D800207047222AFBD1C0E91D3303E034
:1033F000034A426707228267C3670120704700BF04
:103400003422002037B500F58055D5F8A4381A6865
:10341000117804291AD1017C022917D119790123C5
:1034200012898B40134211D100F14C04204602F066
:1034300085FB58B101A9204602F0CCFAD5F8A44882
:103440000246019B2179206800F0C0F803B030BD2E
:1034500001F10B03F0B550F8236085B004460D462A
:10346000FEB1302383F3118804EB8507301D08215A
:10347000FFF7A6FEFB6806F14C005B691B681BB1F9
:10348000019002F0B5FA019803A902F0A3FA0246EE
:1034900048B1039B2946204600F098F8002383F3A7
:1034A000118805B0F0BDFB685A691268002AF5D092
:1034B0001B8A013B1340F1D104F18002EAE70000CE
:1034C000133138B550F82140ECB1302383F3118823
:1034D00004F58053D3F8A4281368527903EB8203D0
:1034E000DB689B695D6845B104216018FFF768FEE1
:1034F000294604F1140002F0A3F92046FFF7B4FEB8
:10350000002383F3118838BD7047000001F060BCD0
:1035100001234022002110B5044600F8303BFDF79E
:10352000FBFF0023C4E9013310BD000010B53023B8
:10353000044683F311882422416000210C30FDF7FA
:10354000EBFF204601F066FC02230020237080F38D
:10355000118810BD70B500EB8103054650690E4619
:103560001446DA6018B110220021FDF7D5FFA069DA
:1035700018B110220021FDF7CFFF31462846BDE8E3
:10358000704001F047BD000083682022002103F055
:10359000011310B5044683601030FDF7BDFF2046CF
:1035A000BDE8104001F0C2BDF0B4012500EB81047C
:1035B00047898D40E4683D43A46945812360002329
:1035C000A2606360F0BC01F0DFBD0000F0B4012533
:1035D00000EB810407898D40E4683D4364690581FF
:1035E00023600023A2606360F0BC01F055BE0000C0
:1035F00070B5022300250446242203702946C0F832
:1036000088500C3040F8045CFDF786FF204684F8B3
:10361000705001F093FC63681B6823B12946204673
:10362000BDE87040184770BD0378052B10B50446FF
:103630000AD080F88C300523037043681B680BB1F7
:10364000042198470023A36010BD000001780529DC
:1036500006D190F88C20436802701B6803B11847AC
:103660007047000070B590F87030044613B1002325
:1036700080F8703004F18002204601F07BFD636821
:103680009B68B3B994F8803013F0600535D0002101
:10369000204602F06DF80021204602F05DF86368D4
:1036A0001B6813B1062120469847062384F8703022
:1036B00070BD204698470028E4D0B4F88630A26F49
:1036C0009A4288BFA36794F98030A56F002B4FF012
:1036D000300380F20381002D00F0F280092284F88B
:1036E000702083F3118800212046D4E91D23FFF7C1
:1036F0006DFF002383F31188DAE794F8812003F04B
:103700007F0343EA022340F20232934200F0C58075
:1037100021D8B3F5807F48D00DD8012B3FD0022BA4
:1037200000F09380002BB2D104F18802626702227C
:10373000A267E367C1E7B3F5817F00F09B80B3F533
:10374000407FA4D194F88230012BA0D1B4F8883006
:1037500043F0020332E0B3F5006F4DD017D8B3F554
:10376000A06F31D0A3F5C063012B90D863682046C9
:1037700094F882205E6894F88310B4F88430B047DF
:10378000002884D0436863670368A3671AE0B3F531
:10379000106F36D040F6024293427FF478AF5C4B14
:1037A00063670223A3670023C3E794F88230012BE9
:1037B0007FF46DAFB4F8883023F00203A4F88830AA
:1037C000C4E91D55E56778E7B4F88030B3F5A06F1C
:1037D0000ED194F88230204684F88A3001F00CFC37
:1037E00063681B6813B101212046984703232370A7
:1037F0000023C4E91D339CE704F18B0363670123B5
:10380000C3E72378042B10D1302383F3118820469B
:10381000FFF7BAFE85F311880321636884F88B50A3
:1038200021701B680BB12046984794F88230002B1A
:10383000DED084F88B300423237063681B68002B70
:10384000D6D0022120469847D2E794F8843020460B
:103850001D0603F00F010AD501F07EFC012804D0FB
:1038600002287FF414AF2B4B9AE72B4B98E701F01B
:1038700065FCF3E794F88230002B7FF408AF94F8EE
:10388000843013F00F01B3D01A06204602D501F0A0
:1038900087FFADE701F078FFAAE794F88230002BAC
:1038A0007FF4F5AE94F8843013F00F01A0D01B061E
:1038B000204602D501F05CFF9AE701F04DFF97E743
:1038C000142284F8702083F311882B462A46294657
:1038D0002046FFF769FE85F31188E9E65DB1152200
:1038E00084F8702083F3118800212046D4E91D2339
:1038F000FFF75AFEFDE60B2284F8702083F311884F
:103900002B462A4629462046FFF760FEE3E700BF24
:103910003C6A0008346A0008386A000838B590F834
:1039200070300446002B3ED0063BDAB20F2A34D862
:103930000F2B32D8DFE803F0373131082232313132
:103940003131313131313737856FB0F886309D42B2
:1039500014D2C3681B8AB5FBF3F203FB12556DB991
:10396000302383F311882B462A462946FFF72EFE83
:1039700085F311880A2384F870300EE0142384F84C
:103980007030302383F31188002320461A461946ED
:10399000FFF70AFE002383F3118838BDC36F03B11C
:1039A00098470023E7E70021204601F0E1FE0021CF
:1039B000204601F0D1FE63681B6813B10621204642
:1039C00098470623D7E7000010B590F870300446FA
:1039D000142B29D017D8062B05D001D81BB110BD48
:1039E000093B022BFBD80021204601F0C1FE00213B
:1039F000204601F0B1FE63681B6813B10621204622
:103A00009847062319E0152BE9D10B2380F8703075
:103A1000302383F3118800231A461946FFF7D6FD99
:103A2000002383F31188DAE7C3689B695B68002B86
:103A3000D5D1C36F03B19847002384F87030CEE727
:103A4000FFF700B8012100230170C0E901330C30F9
:103A500000F028B910B53023044683F31188416083
:103A6000FEF7FEFF02230020237080F3118810BDB3
:103A700010B53023044683F31188032304F8083B70
:103A8000FFF718F84FF0FF31204600F0E1F900236E
:103A900083F31188C01A18BF012010BD38B5044641
:103AA000302585F31188032504F8085BFFF71EF81D
:103AB0004FF0FF31204600F0CBF9002383F311884B
:103AC000C01A18BF012038BD38B50446302585F32B
:103AD0001188042504F8085BFFF72CF84FF0FF313C
:103AE000204600F0B5F9002383F31188C01A18BFEF
:103AF000012038BD10B53023044683F31188FFF749
:103B00003FF806232370002383F3118810BD0000C3
:103B100010B53023044683F31188FFF74BF80223D6
:103B20002370002383F3118810BD00000C3000F0D7
:103B3000D5B800000C3000F0DBB80000002382682C
:103B4000037503691B6899689142FBD25A68036048
:103B500042601060586070470023826803750369F3
:103B60001B6899689142FBD85A68036042601060F4
:103B70005860704708B50846302383F311880A7DE2
:103B80000023052A06D8DFE802F00B050503120E14
:103B9000826913604FF0FF338361FFF7CFFF00238B
:103BA00083F3118808BD8269936801339360D0E97B
:103BB000003213605A60EDE7FFF7C0BF054BD968CC
:103BC00008751868026853601A600122D86002758F
:103BD000FCF7A4BD902900200C4B30B5DD684B1CD0
:103BE00087B004460FD02B46094A684600F0F8F922
:103BF0002046FFF7E3FF009B13B1684600F0FAF997
:103C0000A86907B030BDFFF7D9FFF9E79029002078
:103C1000753B000838B50C4D04468161EB6881683E
:103C20009A68914203D8BDE83840FFF787BF18462D
:103C3000FFF792FF01230146EC6020462375BDE8A3
:103C40003840FCF76BBD00BF90290020044B1A6878
:103C5000DB6890689B68984294BF00200120704701
:103C600090290020084B10B51C68D8682268536062
:103C70001A600122DC602275FFF76EFF01462046C4
:103C8000BDE81040FCF74ABD90290020044B1A689B
:103C9000DB6892689B689A4201D9FFF7E3BF7047DF
:103CA00090290020C0E90000816070478368013BD3
:103CB000002B10B583600CDA074BDC684368A06109
:103CC000206063601C6044600520FFF777FFA069F7
:103CD00010BD0020FCE700BF9029002008B530236C
:103CE00083F31188FFF7E2FF002383F3118808BDF7
:103CF00008B5302383F3118883680133002B836078
:103D000007DC036800211A68026050601846FFF75C
:103D100081FF002383F3118808BD000038B501231B
:103D2000084C00252370656001F044FF01F06AFF34
:103D30000549064802F03EF80223237085F31188F6
:103D400038BD00BFF82B0020446A000890290020ED
:103D500008B572B6044B186500F052FD00F020FE65
:103D6000024B03221A70FEE790290020F82B002056
:103D700000F076B9EFF3118020B9EFF3058330221C
:103D800082F311887047000010B530B9EFF3058455
:103D9000C4F3080414B180F3118810BDFFF776FF57
:103DA00084F31188F9E70000034A516853685B1AED
:103DB0009842FBD8704700BF001000E08B600223E0
:103DC000086108468B8270478368A3F1840243F838
:103DD000142C026943F8442C426943F8402C094AE8
:103DE00043F8242CC268A3F1200043F8182C0222C7
:103DF00003F80C2C002203F80B2C034A43F8102C78
:103E0000704700BF350700089029002008B5FFF76C
:103E1000DBFFBDE80840FFF7CFBE0000024BDB68C8
:103E200098610F20FFF7CABE90290020302383F34A
:103E30001188FFF7F3BF000008B50146302383F374
:103E400011880820FFF7C8FE002383F3118808BDFE
:103E5000054BDB6821B1036098610320FFF7BCBE0E
:103E60004FF0FF30704700BF9029002003682BB14E
:103E70000022026018469961FFF79EBE704700005D
:103E8000064BDB6839B1426818605A6013604360C2
:103E90000420FFF7A1BE4FF0FF30704790290020AB
:103EA0000368984206D01A6802605060184699610B
:103EB000FFF782BE7047000038B504460D46206803
:103EC000844200D138BD036823605C608561FFF7E0
:103ED00073FEF4E7036810B59C68A2420CD85C68D6
:103EE0008A600B604C602160596099688A1A9A60F8
:103EF0004FF0FF33836010BD121B1B68ECE700001E
:103F00000A2938BF0A2170B504460D460A266019F1
:103F100001F04AFE01F032FE041BA54203D8751CD5
:103F200004462E46F3E70A2E04D90120BDE870406E
:103F300001F080BF70BD0000F8B5144B0D460A2A91
:103F40004FF00A07D96103F11001826038BF0A22DD
:103F5000416019691446016048601861A81801F0B1
:103F600013FE01F00BFE431B0646A34206D37C1C46
:103F700028192746354601F017FEF2E70A2F04D923
:103F80000120BDE8F84001F055BFF8BD90290020A0
:103F9000F8B506460D4601F0F1FD0F4A134653F8F9
:103FA000107F9F4206D12A4601463046BDE8F840C0
:103FB000FFF7C2BFD169BB68441A2C1928BF2C4631
:103FC000A34202D92946FFF79BFF22463146034808
:103FD000BDE8F840FFF77EBF90290020A02900200F
:103FE000C0E90323002310B45DF8044B4361FFF7DD
:103FF000CFBF000010B5194C236998420DD08168DD
:10400000D0E9003213605A609A680A449A6000232B
:1040100003604FF0FF33A36110BD0268234643F8ED
:10402000102F53600022026022699A4203D1BDE83A
:10403000104001F0B3BD936881680B44936001F0B8
:104040009DFD2269E1699268441AA242E4D91144B3
:10405000BDE81040091AFFF753BF00BF90290020A8
:104060002DE9F047DFF8BC8008F110072C4ED8F896
:10407000105001F083FDD8F81C40AA68031B9A4237
:104080003ED814444FF00009D5E90032C8F81C406E
:1040900013605A60C5F80090D8F81030B34201D1CF
:1040A00001F07CFD89F31188D5E903312846984752
:1040B000302383F311886B69002BD8D001F05EFDAB
:1040C0006A69A0EB040982464A450DD2022001F03C
:1040D000B1FE0022D8F81030B34208D1514628462C
:1040E000BDE8F047FFF728BF121A2244F2E712EBAF
:1040F00009092946384638BF4A46FFF7EBFEB5E7BF
:10410000D8F81030B34208D01444C8F81C00211A63
:10411000A960BDE8F047FFF7F3BEBDE8F08700BF38
:10412000A02900209029002000207047FEE7000011
:10413000704700004FF0FF307047000002290CD09C
:10414000032904D00129074818BF00207047032A1B
:1041500005D8054800EBC2007047044870470020AE
:10416000704700BF1C6B000844220020D06A000882
:1041700070B59AB005460846144601A900F0C2F889
:1041800001A8FDF7C1F9431C0022C6B25B0010462E
:10419000C5E9003423700323023404F8013C01AB69
:1041A000D1B202348E4201D81AB070BD13F8011B8F
:1041B000013204F8010C04F8021CF1E708B53023C1
:1041C00083F311880348FFF71DF9002383F3118857
:1041D00008BD00BF002C002090F8803003F01F02C3
:1041E000012A07D190F881200B2A03D10023C0E9CE
:1041F0001D3315E003F06003202B08D1B0F88430A4
:104200002BB990F88120212A03D81F2A04D8FFF760
:10421000DBB8222AEBD0FAE7034A4267072282671B
:10422000C3670120704700BF3B22002007B5052966
:1042300017D8DFE801F0191603191920302383F38A
:104240001188104A01210190FFF784F90198022199
:104250000D4AFFF77FF90D48FFF7A0F8002383F31D
:10426000118803B05DF804FB302383F311880748FD
:10427000FFF76AF8F2E7302383F311880348FFF76A
:1042800081F8EBE7706A0008946A0008002C0020AF
:1042900038B50C4D0C4C2A460C4904F10800FFF7C8
:1042A00067FF05F1CA0204F110000949FFF760FF3A
:1042B00005F5CA7204F118000649BDE83840FFF759
:1042C00057BF00BFD844002044220020506A000895
:1042D0005A6A0008656A000870B5044608460D462B
:1042E000FDF712F9C6B22046013403780BB918461F
:1042F00070BD32462946FDF7E7F80028F3D10120CA
:10430000F6E700002DE9F04705460C46FDF7FCF8FE
:104310002B49C6B22846FFF7DFFF08B10736F6B2D1
:1043200028492846FFF7D8FF08B11036F6B2632EA9
:104330000BD8DFF88C80DFF88C90234FDFF894A047
:104340002E7846B92670BDE8F08729462046BDE89C
:10435000F04702F0DDB9252E2ED10722414628462E
:10436000FDF7B2F870B9194B224603F10C0153F86E
:10437000040B8B4242F8040BF9D11B8807350E342D
:104380001380DDE7082249462846FDF79DF898B9D5
:10439000A21C0F4B197802320909C95D02F8041CEE
:1043A00013F8011B01F00F015345C95D02F8031C0E
:1043B000F0D118340835C3E7013504F8016BBFE7C5
:1043C0003C6B0008656A0008536B0008446B0008EA
:1043D00000E8F11F0CE8F11FBFF34F8F044B1A697F
:1043E0005107FCD1D3F810215207F8D1704700BF14
:1043F0000020005208B50D4B1B78ABB9FFF7ECFF5E
:104400000B4BDA68D10704D50A4A5A6002F18832A8
:104410005A60D3F80C21D20706D5064AC3F8042106
:1044200002F18832C3F8042108BD00BF36470020DE
:10443000002000522301674508B5114B1B78F3B9E2
:10444000104B1A69510703D5DA6842F04002DA606E
:10445000D3F81021520705D5D3F80C2142F04002C1
:10446000C3F80C21FFF7B8FF064BDA6842F00102EF
:10447000DA60D3F80C2142F00102C3F80C2108BD28
:1044800036470020002000520F289ABF00F58060B8
:1044900040040020704700004FF4003070470000D7
:1044A000102070470F2808B50BD8FFF7EDFF00F577
:1044B00000330268013204D104308342F9D1012073
:1044C00008BD0020FCE700000F2870B5054645D860
:1044D000FFF750FC224CFFF77FFF0646FFF78AFFED
:1044E0004FF0FF33072D6361C4F8143120D82361E6
:1044F000FFF772FF2B0243F02403E360E36843F00D
:104500008003E36023695A07FCD42846FFF764FF61
:104510004FF40031FFF7B8FF00F01EFA3046FFF706
:104520008BFFFFF731FC2846BDE87040FFF7BABFAC
:10453000C4F81031FFF750FFA5F108031B0243F048
:104540002403C4F80C31D4F80C3143F08003C4F8D0
:104550000C31D4F810315B07FBD4D6E7002070BDD6
:10456000002000522DE9F84F40EA020305460C46B0
:104570001746D80602D00020BDE8F88F27F01F07A5
:10458000DFF8D4B0FFF736FF2744BC4203D1012047
:10459000FFF752FFF0E720222946204602F064F898
:1045A00010B920352034F0E72B4605F120021E68B3
:1045B000711CE0D104339A42F9D1FFF7DBFB05F11E
:1045C0007843234AB3F5801F224B28BF9A4603F154
:1045D000040338BF9046A2F1080228BF9846A3F111
:1045E00008033ABF9146DA469946FFF7F5FEC8F848
:1045F0000060A5EB040CD9F8002004F11C0142F086
:104600000202C9F80020221FDAF8006016F0050641
:10461000FAD152F8043F8A424CF80230F4D1BFF389
:104620004F8FFFF7D9FE4FF0FF32C8F80020D9F8BE
:10463000002022F00202C9F80020FFF7A5FB20228B
:104640002146284602F010F80028AAD030469FE7FD
:1046500014200052102100521020005210B5084CB6
:10466000237828B11BB9FFF7C5FE0123237010BDC5
:10467000002BFCD02070BDE81040FFF7DDBE00BF6E
:10468000364700202DE9F74F0E460546002864D036
:1046900011F0050763D139B908222946304601F0E7
:1046A000D3FA0446002848D108224FF00109DFF868
:1046B000C08006F00403DFF8BCA006EA090BBBF1DA
:1046C000000F27D0D8F81410C80723D409F1010926
:1046D00008F10C08B9F1060FF1D18FB9224E294625
:1046E000F019009201F0B0FA044630BB1837009A76
:1046F000782FF4D1294601F0A7FA0446E8B9009AC8
:1047000029461A4801F0A0FA044608BB204603B027
:10471000BDE8F08FABB1D8F8141011F0040FD5D06C
:104720001820294600FB09A0CDE9002301F08CFAEE
:104730000446DDE900230028C8D02A46002120468F
:1047400008E0B107ECD5D8F8141011F0020FE6E735
:104750002A460021FCF7E0FED8E70446D6E71F35DD
:10476000202225F01F05A0E76847002038470020D9
:10477000646B0008504700200021FFF783BF000052
:104780000121FFF77FBF0000F8B5144D0124182761
:10479000134E40F2FF3200210120FCF7BDFE07FB63
:1047A000046001342A6955F80C1F01F039FA062C0F
:1047B000F5D137254FF4C0542046FFF7E1FF0146FD
:1047C00028B122460748BDE8F84001F029BAC4EBF9
:1047D000C404013D4FEAD404EED1F8BD646B000877
:1047E00050470020384700200421FFF74BBF00004E
:1047F0004843FFF7C1BF000008B101F097BA704706
:1048000038B5054D00240334696855F80C0B00F0E9
:10481000B5F8122CF7D138BD646B000870B5104E96
:1048200082B0FFF7A7FA054601F0A8F932680346FF
:104830009042336037BF0B4A0A495168146836BF4B
:104840000131D1E9004151600419284641F10001CC
:104850000191FFF799FA2046019902B070BD00BF9F
:10486000E0470020E847002070B5124E82B0FFF705
:1048700081FA054601F082F93268034690423360BE
:1048800037BF0D4A0C495168146836BF0131D1E970
:10489000004151600419284641F100010191FFF7E0
:1048A00073FA4FF47A72002320460199FBF720FD3A
:1048B00002B070BDE0470020E84700200244074BEB
:1048C000D2B210B5904200D110BD441C00B253F8D2
:1048D000200041F8040BE0B2F4E700BF504000585C
:1048E0000E4B30B51C6F240405D41C6F1C671C6F65
:1048F00044F400441C670A4C02442368D2B243F4D7
:1049000080732360074B904200D130BD441C51F8A6
:10491000045B00B243F82050E0B2F4E700440258D0
:10492000004802585040005807B5012201A9002054
:10493000FFF7C4FF019803B05DF804FB13B504460C
:10494000FFF7F2FFA04205D0012201A90020019447
:10495000FFF7C6FF02B010BD0144BFF34F8F064BF7
:10496000884204D3BFF34F8FBFF36F8F7047C3F8F4
:104970005C022030F4E700BF00ED00E00144BFF32B
:104980004F8F064B884204D3BFF34F8FBFF36F8F17
:104990007047C3F870022030F4E700BF00ED00E07C
:1049A0007047000070B5054616460C4601201021E0
:1049B000FFF71EFF286046733CB1204636B1FFF773
:1049C00013FF2B68186000B19C6070BDFFF7D8FE24
:1049D000F7E7000070B50E461546044600B30B68B5
:1049E00043608368934210D213B10068FFF704FF5D
:1049F000637B28462BB1FFF7F7FE206020B9A0604B
:104A000070BDFFF7BDFEF8E7A560206805F11F0146
:104A1000306021F01F01FFF79FFF01202073EFE7B7
:104A20000120EDE710B5044640B10068884205D189
:104A3000606808B1FCF73EFD0023237310BD000041
:104A400070B50E461546044620B383689A4210D9C5
:104A500013B10068FFF7D0FE637B28462BB1FFF748
:104A6000C3FE206020B9A06070BDFFF789FEF8E7A3
:104A7000A560316819B12A462068FCF71BFD206843
:104A800005F11F01306021F01F01FFF777FF0120C2
:104A90002073E9E70120E7E720B103688B4204BFF8
:104AA000002303737047000008B1002303737047AD
:104AB000034B1A681AB9034AD2F8D0241A60704717
:104AC000F04700200040025808B5FFF7F1FF024B05
:104AD0001868C0F3806008BDF047002070B5BFF3D0
:104AE0004F8FBFF36F8F1A4A0021C2F85012BFF3E5
:104AF0004F8FBFF36F8F536943F400335361BFF39C
:104B00004F8FBFF36F8FC2F88410BFF34F8FD2F86F
:104B1000803043F6E074C3F3C900C3F34E335B0146
:104B200003EA0406014646EA81750139C2F860527B
:104B3000F9D2203B13F1200FF2D1BFF34F8F53690D
:104B400043F480335361BFF34F8FBFF36F8F70BD5A
:104B500000ED00E0FEE700000A4B0B480B4A9042D4
:104B60000BD30B4BC11EDA1C121A22F003028B422C
:104B700038BF00220021FCF7CFBC53F8041B40F8DB
:104B8000041BECE7386E0008B04A0020B04A002051
:104B9000B04A00207047000003681A6899685A609C
:104BA00043681BB142EA0141806818477047000022
:104BB0004FF0A44310B51C68E00702D52848FFF762
:104BC000EBFFA10702D52748FFF7E6FF620702D5F2
:104BD0002548FFF7E1FF230702D52448FFF7DCFF54
:104BE000E00602D52248FFF7D7FFA10602D52148EB
:104BF000FFF7D2FF620602D51F48FFF7CDFF23065D
:104C000002D51E48FFF7C8FFE00502D51C48FFF794
:104C1000C3FFA10502D51B48FFF7BEFF620502D501
:104C20001948FFF7B9FF230502D51848FFF7B4FF6D
:104C3000E00402D51648FFF7AFFFA10402D51548DE
:104C4000FFF7AAFF620402D51348FFF7A5FF23046C
:104C500002D51248FFF7A0FFBDE8104001F0D0B91F
:104C6000F847002004480020104800201C4800207D
:104C70002848002034480020404800204C480020AC
:104C80005848002064480020704800207C480020DC
:104C90008848002094480020A0480020AC4800200C
:104CA00030B5094B0021094C10200725196054F834
:104CB000042B0138C3E90121D16003F10C03116118
:104CC0005560F4D130BD00BFF4470020AC6B000844
:104CD0000F28F0B50AD9102806D10F230020114C57
:104CE00001272568984203D9002018E00346F6E71B
:104CF00007FA00F6354213D10C23354343432560B0
:104D0000181D2344C3E90212074B20445A6B42F09A
:104D100001025A63DA6D42F00102DA65DB6DF0BD23
:104D20000130DFE7F4470020004502580368D968E6
:104D3000DA68C90722F03F02DA6002D51A689207E2
:104D4000FCD507225A607047054B996B21EA000198
:104D500099631A6E22EA00021A661B6E704700BF42
:104D60000045025870B5D0E9244300224FF0FF35CA
:104D70009E6804EB42135101D3F80009002805DABC
:104D8000D3F8000940F08040C3F80009D3F8000BC5
:104D9000002805DAD3F8000B40F08040C3F8000B80
:104DA000013263189642C3F80859C3F8085BE0D291
:104DB0004FF00113C4F81C3870BD0000890141F0A8
:104DC0002001016103699B06FCD41220FEF7ECBFB1
:104DD00010B50A4C2046FEF79BFB094BC4F89030F7
:104DE000084BC4F89430084C2046FEF791FB074B63
:104DF000C4F89030064BC4F8943010BDB848002079
:104E000000000840106C00085449002000000440D5
:104E10001C6C000870B503780546012B58D13F4B38
:104E2000D0F89040984254D13D4B0E2165209A6BAA
:104E300042F000629A631A6E42F000621A661B6EBC
:104E4000384BD3F8802042F00062C3F88020D3F8BA
:104E5000802022F00062C3F88020D3F8803000F078
:104E6000ABFC314BE360314BC4F800380023D5F87C
:104E70009060C4F8003EC02323604FF40413A36382
:104E80003369002BFCDA01230C203361FEF78CFF21
:104E90003369DB07FCD41220FEF786FF3369002B51
:104EA000FCDA00262846A660FFF75CFF6B68C4F8B2
:104EB0001068DB68C4F81468C4F81C6863BB1C4B3A
:104EC000A3614FF0FF336361A36843F00103A36064
:104ED00070BD184B9842C9D1114B4FF080609A6B4E
:104EE00042F000729A631A6E42F000721A661B6EEC
:104EF0000C4BD3F8802042F00072C3F88020D3F826
:104F0000802022F00072C3F88020D3F88030FFF7B1
:104F10001BFF0E214D20A2E7074BD1E7B848002028
:104F2000004502580044025840140040030020028B
:104F3000003C30C054490020083C30C0F8B5D0F8DF
:104F40009040054600214FF000662046FFF736FFEF
:104F5000D5F8941000234FF001128F684FF0FF3006
:104F6000C4F83438C4F81C2804EB431201339F42C0
:104F7000C2F80069C2F8006BC2F80809C2F8080B51
:104F8000F2D20B68D5F89020C5F8983063621023F0
:104F90001361166916F01006FBD11220FEF704FF0C
:104FA000D4F8003823F4FE63C4F80038A36943F44E
:104FB000402343F01003A3610923C4F81038C4F858
:104FC00014380B4BEB604FF0C043C4F8103B094B57
:104FD000C4F8003BC4F81069C4F80039D5F898301B
:104FE00003F1100243F48013C5F89820A362F8BDC2
:104FF000EC6B000840800010D0F8902090F88A10E8
:10500000D2F8003823F4FE6343EA0113C2F80038F3
:10501000704700002DE9F84300EB8103D0F8905071
:105020000C468046DA680FFA81F94801166806F0E6
:105030000306731E022B05EB41134FF0000194BFD2
:10504000B604384EC3F8101B4FF0010104F11003F1
:1050500098BF06F1805601FA03F3916998BF06F5EF
:10506000004600293AD0578A04F1580137434901D4
:105070006F50D5F81C180B430021C5F81C382B18AD
:105080000127C3F81019A7405369611E9BB3138A07
:10509000928B9B08012A88BF5343D8F89820981810
:1050A00042EA034301F140022146C8F8980028462D
:1050B00005EB82025360FFF781FE08EB8900C368AD
:1050C0001B8A43EA845348341E4364012E51D5F8A9
:1050D0001C381F43C5F81C78BDE8F88305EB491759
:1050E000D7F8001B21F40041C7F8001BD5F81C18A5
:1050F00021EA0303C0E704F13F030B4A2846214697
:1051000005EB83035A60FFF759FE05EB4910D0F811
:10511000003923F40043C0F80039D5F81C3823EADD
:105120000707D7E70080001000040002D0F89420A1
:105130001268C0F89820FFF715BE00005831D0F86B
:10514000903049015B5813F4004004D013F4001F61
:105150000CBF0220012070474831D0F8903049013F
:105160005B5813F4004004D013F4001F0CBF02205E
:105170000120704700EB8101CB68196A0B6813604E
:105180004B6853607047000000EB810330B5DD6869
:10519000AA691368D36019B9402B84BF40231360F8
:1051A0006B8A1468D0F890201C4402EB4110013C3B
:1051B00009B2B4FBF3F46343033323F0030343EA7C
:1051C000C44343F0C043C0F8103B2B6803F0030313
:1051D000012B0ED1D2F8083802EB411013F4807F76
:1051E000D0F8003B14BF43F0805343F00053C0F8A5
:1051F000003B02EB4112D2F8003B43F00443C2F8FB
:10520000003B30BD2DE9F041D0F8906005460C46DA
:1052100006EB4113D3F8087B3A07C3F8087B08D59F
:10522000D6F814381B0704D500EB8103DB685B68F4
:105230009847FA071FD5D6F81438DB071BD505EBBE
:105240008403D968CCB98B69488A5A68B2FBF0F6F6
:1052500000FB16228AB91868DA6890420DD2121A39
:10526000C3E90024302383F3118821462846FFF741
:105270008BFF84F31188BDE8F081012303FA04F267
:105280006B8923EA02036B81CB68002BF3D02146A4
:105290002846BDE8F041184700EB81034A0170B58C
:1052A000DD68D0F890306C692668E66056BB1A4419
:1052B0004FF40020C2F810092A6802F00302012A04
:1052C0000AB20ED1D3F8080803EB421410F4807F21
:1052D000D4F8000914BF40F0805040F00050C4F8EA
:1052E000000903EB4212D2F8000940F00440C2F872
:1052F00000090122D3F8340802FA01F10143C3F88E
:10530000341870BD19B9402E84BF40202060206839
:105310001A442E8A8419013CB4FBF6F440EAC440D6
:1053200040F00050C6E700002DE9F843D0F8906047
:1053300005460C464F0106EB4113D3F8088918F0D7
:10534000010FC3F808891CD0D6F81038DB0718D530
:1053500000EB8103D3F80CC0DCF81430D3F800E084
:10536000DA68964530D2A2EB0E024FF000091A60BF
:10537000C3F80490302383F31188FFF78DFF89F37E
:10538000118818F0800F1DD0D6F834380126A640B9
:10539000334217D005EB84030134D5F89050D3F88D
:1053A0000CC0E4B22F44DCF8142005EB0434D2F82E
:1053B00000E05168714514D3D5F8343823EA060665
:1053C000C5F83468BDE8F883012303FA01F20389C4
:1053D00023EA02030381DCF80830002BD1D0984780
:1053E000CFE7AEEB0103BCF81000834228BF0346B1
:1053F000D7F8180980B2B3EB800FE3D89068A0F11A
:10540000040959F8048FC4F80080A0EB09089844F7
:10541000B8F1040FF5D818440B4490605360C8E706
:105420002DE9F84FD0F8905004466E69AB691E40E4
:1054300016F480586E6103D0BDE8F84FFEF7D8B877
:10544000002E12DAD5F8003E9B0705D0D5F8003EB5
:1054500023F00303C5F8003ED5F80438204623F0B6
:105460000103C5F80438FEF7F1F8370505D52046E5
:10547000FFF778FC2046FEF7D7F8B0040CD5D5F836
:10548000083813F0060FEB6823F470530CBF43F495
:10549000105343F4A053EB6031071BD56368DB68FE
:1054A0001BB9AB6923F00803AB612378052B0CD142
:1054B000D5F8003E9A0705D0D5F8003E23F0030347
:1054C000C5F8003E2046FEF7C1F86368DB680BB103
:1054D00020469847F30200F1BA80B70226D5D4F8E7
:1054E000909000274FF0010A09EB4712D2F8003BD9
:1054F00003F44023B3F5802F11D1D2F8003B002BE9
:105500000DDA62890AFA07F322EA0303638104EBE6
:105510008703DB68DB6813B13946204698470137BB
:10552000D4F89430FFB29B689F42DDD9F00619D5BC
:10553000D4F89000026AC2F30A1702F00F0302F4D3
:10554000F012B2F5802F00F0CA80B2F5402F09D1D9
:1055500004EB8303002200F58050DB681B6A97424E
:1055600040F0B0803003D5F8185835D5E90303D59D
:1055700000212046FFF746FEAA0303D5012120465D
:10558000FFF740FE6B0303D502212046FFF73AFEEA
:105590002F0303D503212046FFF734FEE80203D58D
:1055A00004212046FFF72EFEA90203D5052120463F
:1055B000FFF728FE6A0203D506212046FFF722FEE8
:1055C0002B0203D507212046FFF71CFEEF0103D570
:1055D00008212046FFF716FE700340F1A780E90777
:1055E00003D500212046FFF79FFEAA0703D501211E
:1055F0002046FFF799FE6B0703D502212046FFF7EF
:1056000093FE2F0703D503212046FFF78DFEEE06FC
:1056100003D504212046FFF787FEA80603D5052100
:105620002046FFF781FE690603D506212046FFF7D5
:105630007BFE2A0603D507212046FFF775FEEB0502
:1056400074D520460821BDE8F84FFFF76DBED4F8A9
:1056500090904FF0000B4FF0010AD4F894305FFAAD
:105660008BF79B689F423FF638AF09EB4713D3F89F
:10567000002902F44022B2F5802F20D1D3F800296E
:10568000002A1CDAD3F8002942F09042C3F800291E
:10569000D3F80029002AFBDB3946D4F89000FFF745
:1056A0008DFB22890AFA07F322EA0303238104EB24
:1056B0008703DB689B6813B13946204698470BF196
:1056C000010BCAE7910701D1D0F80080072A02F147
:1056D00001029CBF03F8018B4FEA18283FE704EB57
:1056E000830300F58050DA68D2F818C0DCF808208F
:1056F000DCE9001CA1EB0C0C00218F4208D1DB6817
:105700009B699A683A449A605A683A445A6029E711
:1057100011F0030F01D1D0F800808C4501F1010197
:1057200084BF02F8018B4FEA1828E6E7BDE8F88F3E
:1057300008B50348FFF774FEBDE8084000F060BC00
:10574000B848002008B50348FFF76AFEBDE80840E6
:1057500000F056BC54490020D0F8903003EB4111C2
:10576000D1F8003B43F40013C1F8003B7047000040
:10577000D0F8903003EB4111D1F8003943F4001315
:10578000C1F8003970470000D0F8903003EB4111A8
:10579000D1F8003B23F40013C1F8003B7047000030
:1057A000D0F8903003EB4111D1F8003923F4001305
:1057B000C1F8003970470000090100F1604301227F
:1057C00003F56143C9B283F8001300F01F039A4048
:1057D00043099B0003F1604303F56143C3F8802153
:1057E0001A60704730B50433039C0172002104FB3A
:1057F0000325C160C0E90653049B0363059BC0E910
:105800000000C0E90422C0E90842C0E90A1143636C
:1058100030BD00000022416AC260C0E90411C0E945
:105820000A226FF00101FEF747BB0000D0E9043205
:10583000934201D1C2680AB9181D70470020704711
:10584000036919600021C2680132C260C269134451
:1058500082699342036124BF436A0361FEF720BB60
:1058600038B504460D46E3683BB162690020131D5C
:105870001268A3621344E36207E0237A33B929462E
:105880002046FEF7FDFA0028EDDA38BD6FF0010082
:10589000FBE70000C368C269013BC360436913446E
:1058A00082699342436124BF436A43610023836258
:1058B000036B03B11847704770B53023044683F378
:1058C0001188866A3EB9FFF7CBFF054618B186F30B
:1058D0001188284670BDA36AE26A13F8015B9342FF
:1058E000A36202D32046FFF7D5FF002383F311887C
:1058F000EFE700002DE9F84F04460E46174698469C
:105900004FF0300989F311880025AA46D4F828B051
:10591000BBF1000F09D141462046FFF7A1FF20B19E
:105920008BF311882846BDE8F88FD4E90A12A7EB5B
:10593000050B521A934528BF9346BBF1400F1BD964
:10594000334601F1400251F8040B914243F8040B35
:10595000F9D1A36A403640354033A362D4E90A2323
:105960009A4202D32046FFF795FF8AF31188BD4281
:10597000D8D289F31188C9E730465A46FBF79AFD19
:10598000A36A5E445D445B44A362E7E710B5029CF2
:105990000433017203FB0421C460C0E90613002331
:1059A000C0E90A33039B0363049BC0E90000C0E91C
:1059B0000422C0E90842436310BD0000026A6FF090
:1059C0000101C260426AC0E904220022C0E90A2241
:1059D000FEF772BAD0E904239A4201D1C26822B913
:1059E000184650F8043B0B60704700231846FAE74E
:1059F000C3680021C2690133C360436913448269EB
:105A00009342436124BF436A4361FEF749BA0000F1
:105A100038B504460D46E3683BB1236900201A1DE2
:105A2000A262E2691344E36207E0237A33B92946AC
:105A30002046FEF725FA0028EDDA38BD6FF00100A8
:105A4000FBE7000003691960C268013AC260C269DD
:105A5000134482699342036124BF436A03610023B4
:105A60008362036B03B118477047000070B53023A1
:105A70000D460446114683F31188866A2EB9FFF756
:105A8000C7FF10B186F3118870BDA36A1D70A36AA9
:105A9000E26A01339342A36204D3E16920460439E8
:105AA000FFF7D0FF002080F31188EDE72DE9F84FD4
:105AB00004460D46904699464FF0300A8AF3118805
:105AC0000026B346A76A4FB949462046FFF7A0FF14
:105AD00020B187F311883046BDE8F88FD4E90A0772
:105AE0003A1AA8EB0607974228BF1746402F1BD942
:105AF00005F1400355F8042B9D4240F8042BF9D1E1
:105B0000A36A40364033A362D4E90A239A4204D3FD
:105B1000E16920460439FFF795FF8BF3118846456C
:105B2000D9D28AF31188CDE729463A46FBF7C2FC61
:105B3000A36A3D443E443B44A362E5E7D0E9042325
:105B40009A4217D1C3689BB1836A8BB1043B9B1AFD
:105B50000ED01360C368013BC360C3691A448369F4
:105B60009A42026124BF436A0361002383620123D6
:105B7000184670470023FBE700F06CBA014B586AE7
:105B8000704700BF000C0040034B002258631A61AD
:105B90000222DA60704700BF000C0040014B002277
:105BA000DA607047000C0040014B5863704700BF3B
:105BB000000C0040024B034A1A60034A5A607047C7
:105BC000084A0020B04A002000000220074B49424A
:105BD00010B55C68201A08401968821A8A4203D3FB
:105BE000A24201D85A6010BD0020FCE7084A0020FC
:105BF00008B5302383F31188FFF7E8FF002383F310
:105C0000118808BD04480121044B03600023C0E94A
:105C100001330C30FEF746B8104A0020F15B000853
:105C2000CB1D083A23F00703591A521A012110B468
:105C3000D2080024C0E9004384600C301C605A6024
:105C40005DF8044BFEF72EB82DE9F84F364ECD1D0A
:105C50000F46002818BF0646082A4FEAD50538BF68
:105C6000082206F10C08341D91464046FEF736F82E
:105C700009F10701C9F1000E224624686CB94046BB
:105C8000FEF736F83368CBB308224946E800984758
:105C9000044698B340E9026730E004EB010CD4F805
:105CA00004A00CEA0E0C0AF10100ACF1080304EBAD
:105CB000C0009842E0D9A0EB0C0CB5EBEC0F4FEA1A
:105CC000EC0BD9D89C421CD204F10802AB45A3EBE3
:105CD00002024FEAE202626009D9691CED432068C2
:105CE00003EBC1025D44556043F8310022601C465D
:105CF0005F60404644F8086BFDF7FAFF2046BDE8B8
:105D0000F88FAA45216802D111602346EFE70135DB
:105D100004EBC50344F8351003F10801401AC01024
:105D200058601360F1E700BF104A0020F8B550F842
:105D3000043C044650F8085CA0F1080607332F1D08
:105D40000C35DB0840F8043C2846FDF7C7FF3B460E
:105D50009F421A6801D0B34228D20AB1964225D296
:105D600044F8082C54F8042C1E60013254F8081C26
:105D700006EBC200814206D14868024444F8042C74
:105D80000A6844F8082C5868411C03EBC1018E4294
:105D900007D154F8042C013202445A6054F8082CFC
:105DA0001A602846BDE8F840FDF7A2BF1346CFE7CA
:105DB000FEE7000070B51B4B0025044686B0586016
:105DC0000E468562016300F0F3F804F11003A5604C
:105DD000E562C4E904334FF0FF33C4E90044C4E989
:105DE0000635FFF7CBFE2B46024604F13401204670
:105DF000C4E9082380230C4A2565FDF7DFFF012352
:105E00000A4AE06000920375684672680192B268BF
:105E1000CDE90223064BCDE90435FDF7F7FF06B0C7
:105E200070BD00BFF82B0020286C00082D6C000806
:105E3000B15D0008024AD36A1843D062704700BFC0
:105E4000902900204B6843608B688360CB68C360F7
:105E50000B6943614B6903628B6943620B680360A2
:105E60007047000008B5324B40F2FF70196C0143D7
:105E700019649A6E02432F489A662F4A9B6E114608
:105E8000FFF7E0FF00F5806002F11C01FFF7DAFF89
:105E900000F5806002F13801FFF7D4FF00F5806063
:105EA00002F15401FFF7CEFF00F5806002F17001AE
:105EB000FFF7C8FF00F5806002F18C01FFF7C2FF19
:105EC00000F5806002F1A801FFF7BCFF00F58060DB
:105ED00002F1C401FFF7B6FF00F5806002F1E001B6
:105EE000FFF7B0FF00F5806002F1FC01FFF7AAFFA9
:105EF00002F58C7100F58060FFF7A4FF00F06CF9EB
:105F00000E4BD3F8902242F00102C3F89022D3F84E
:105F1000942242F00102C3F894220522C3F898208B
:105F20004FF06052C3F89C20054AC3F8A02008BD7A
:105F30000045025800000258346C000800ED00E0F3
:105F40001F00080308B500F033FBFDF7E7FE0D4B1B
:105F5000DA6B42F04002DA635A6E22F040025A666F
:105F60005B6E094B1A6842F008021A601A6842F028
:105F700004021A60FEF79CFDFEF706FCBDE808402F
:105F8000FEF786B900450258001802487047000025
:105F9000EFF30983054968334A6B22F001024A6333
:105FA00083F30988002383F31188704700EF00E032
:105FB000302080F3118862B60D4B0E4AD96821F467
:105FC000E0610904090C0A430B49DA60D3F8FC20AC
:105FD00042F08072C3F8FC20084AC2F8B01F116872
:105FE00041F0010111602022DA7783F82200704726
:105FF00000ED00E00003FA0555CEACC5001000E04E
:10600000302310B583F311880E4B5B6813F40063E3
:1060100014D0F1EE103AEFF309844FF08073683C2E
:10602000E361094BDB6B236684F30988FDF70EFE01
:1060300010B1064BA36110BD054BFBE783F311883C
:10604000F9E700BF00ED00E000EF00E047070008BF
:106050004A0700080E4B9A6C42F008029A641A6FC5
:1060600042F008021A670B4A1B6FD36B43F0080318
:10607000D363C722084B9A624FF0FF32DA620022E4
:106080009A615A63DA605A6001225A611A60704755
:10609000004502580010005C000C0040094A08B599
:1060A0001169D3680B40D9B29B076FEA01011161F6
:1060B00007D5302383F31188FDF75AFE002383F3BD
:1060C000118808BD000C0040044BDA6B0243DA6310
:1060D0005A6E104358665B6E704700BF0045025809
:1060E00008B53C4B4FF0FF31D3F8802062F00042FE
:1060F000C3F88020D3F8802002F00042C3F880204B
:10610000D3F88020D3F88420C3F88410D3F88420F7
:106110000022C3F88420D3F88400D86F40F0FF40F9
:1061200040F4FF0040F4DF4040F07F00D867D86FB4
:1061300020F0FF4020F4FF0020F4DF4020F07F003B
:10614000D867D86FD3F888006FEA40506FEA505094
:10615000C3F88800D3F88800C0F30A00C3F88800A9
:10616000D3F88800D3F89000C3F89010D3F89000CB
:10617000C3F89020D3F89000D3F89400C3F894109B
:10618000D3F89400C3F89420D3F89400D3F898007F
:10619000C3F89810D3F89800C3F89820D3F8980063
:1061A000D3F88C00C3F88C10D3F88C00C3F88C2083
:1061B000D3F88C00D3F89C00C3F89C10D3F89C1043
:1061C000C3F89C20D3F89C30FEF76AFDBDE8084078
:1061D00000F0BEB90044025808B50122504BC3F884
:1061E0000821504B5A6D42F002025A65DA6F42F0B4
:1061F0000202DA670422DB6F4B4BDA605A689104C3
:10620000FCD54A4A1A6001229A60494ADA600022A3
:106210001A614FF440429A61434B9A699204FCD54B
:106220001A6842F480721A60424B1A6F12F4407F6F
:1062300004D04FF480321A6700221A671A6842F0BD
:1062400001021A603B4B1A685007FCD500221A6104
:106250001A6912F03802FBD1012119604FF0804118
:1062600059605A67344ADA62344A1A611A6842F449
:1062700080321A602F4B1A689103FCD51A6842F4D9
:1062800080521A601A689204FCD52D4A2D499A62F0
:1062900000225A63196301F57C01DA6301F5E771A5
:1062A00099635A64284A1A64284ADA621A6842F0E2
:1062B000A8521A601F4B1A6802F02852B2F1285FE8
:1062C000F9D148229A614FF48862DA6140221A6259
:1062D0001F4ADA641F4A1A651F4A5A651F4A9A659F
:1062E00032231F4A1360136803F00F03022BFAD105
:1062F000104A136943F003031361136903F0380371
:10630000182BFAD14FF00050FFF7DEFE4FF080401F
:10631000FFF7DAFE4FF00040BDE80840FFF7D4BEBB
:1063200000800051004502580048025800C000F0AB
:1063300004000001004402580000FF01008890089A
:106340003220600063020901470E0508DD0BBF0122
:1063500020000020000001100910E00000010110E1
:10636000002000524FF0B04208B5D2F8883003F058
:106370000103C2F8883023B1044A13680BB1506896
:106380009847BDE80840FFF73BBE00BF284A002001
:106390004FF0B04208B5D2F8883003F00203C2F8DB
:1063A000883023B1044A93680BB1D0689847BDE8A0
:1063B0000840FFF725BE00BF284A00204FF0B0423A
:1063C00008B5D2F8883003F00403C2F8883023B14E
:1063D000044A13690BB150699847BDE80840FFF7BC
:1063E0000FBE00BF284A00204FF0B04208B5D2F8D7
:1063F000883003F00803C2F8883023B1044A936957
:106400000BB1D0699847BDE80840FFF7F9BD00BF60
:10641000284A00204FF0B04208B5D2F8883003F087
:106420001003C2F8883023B1044A136A0BB1506AD2
:106430009847BDE80840FFF7E3BD00BF284A0020A9
:106440004FF0B04310B5D3F8884004F47872C3F825
:106450008820A30604D5124A936A0BB1D06A9847E4
:10646000600604D50E4A136B0BB1506B984721069A
:1064700004D50B4A936B0BB1D06B9847E20504D55A
:10648000074A136C0BB1506C9847A30504D5044A16
:10649000936C0BB1D06C9847BDE81040FFF7B0BDCE
:1064A000284A00204FF0B04310B5D3F8884004F4D8
:1064B0007C42C3F88820620504D5164A136D0BB1DF
:1064C000506D9847230504D5124A936D0BB1D06DDA
:1064D0009847E00404D50F4A136E0BB1506E9847ED
:1064E000A10404D50B4A936E0BB1D06E9847620499
:1064F00004D5084A136F0BB1506F9847230404D595
:10650000044A936F0BB1D06F9847BDE81040FFF776
:1065100077BD00BF284A002008B50348FCF758FBA8
:10652000BDE80840FFF76CBD0425002008B503480E
:10653000FCF7FAFBBDE80840FFF762BD2425002008
:1065400008B5FFF7ABFDBDE80840FFF759BD0000F7
:10655000062108B50846FFF72FF906210720FFF7A7
:106560002BF906210820FFF727F906210920FFF75C
:1065700023F906210A20FFF71FF906211720FFF74C
:106580001BF906212820FFF717F909217A20FFF7C8
:1065900013F90A215C20FFF70FF907213220FFF7DA
:1065A0000BF90C212620BDE80840FFF705B90000D3
:1065B00008B5FFF795FD00F00FF8FCF7CDFDFCF7EF
:1065C000A5FFFCF777FEFDF73BFAFFF7DFFCBDE820
:1065D0000840FFF7D1BA00000023054A19460133ED
:1065E000102BC2E9001102F10802F8D1704700BF78
:1065F000284A00200B460146184600F027B8000044
:10660000FEF7FAB8FFF7FCBF012838BF012010B52C
:1066100004462046FEF7B0F830B900F007F808B994
:1066200000F00CF88047F4E710BD0000024B18683A
:10663000BFF35B8F704700BFA84A002008B5062053
:1066400000F04AF80120FDF771FD000010B5054C7F
:1066500013462CB10A4601460220AFF3008010BD5C
:106660002046FCE70000000010B5013902449042CA
:1066700001D1002005E0037811F8014FA34201D0B9
:10668000181B10BD0130F2E71F2938B504460D462E
:1066900004D9162303604FF0FF3038BD426C12B1AD
:1066A00052F821304BB9204600F030F82A46014616
:1066B0002046BDE8384000F017B8012B0AD0591C1D
:1066C00003D1162303600120E7E7002442F82540A8
:1066D000284698470020E0E7024B01461868FFF77C
:1066E000D3BF00BF6422002038B5074D0023044605
:1066F000084611462B60FDF71DFD431C02D12B6897
:1067000003B1236038BD00BFAC4A0020FDF70CBDCB
:10671000034611F8012B03F8012B002AF9D1704729
:106720000000000001000000000100010000000066
:10673000000000000000000052657175657374650B
:106740006420746F206572617365206D6F726520BF
:106750007468616E2077652063616E0A004572611E
:10676000736520436F6D6D616E642052656365696A
:106770007665640A0050435420444F4E453A202524
:10678000640A000053544D333248373F3F3F0053B3
:10679000544D3332483734332F373533000000003F
:1067A00001105A0003105900012058000320560020
:1067B00053464450000000004A454445433A2046B1
:1067C00061696C656420746F20646574656374200E
:1067D000666C617368206465766963653A20257329
:1067E0000A004A454445433A204661696C65642085
:1067F000746F20636F6E66696720666C61736820D2
:106800006465766963653A2025730A004A45444504
:10681000433A20446574656374656420466C617313
:1068200068204465766963653A2025730A004578D7
:106830007420466C617368204E6F7420466F756ECD
:10684000642100006D743235710077323571007744
:106850003235712D647472004468000820BA00005B
:106860004A680008EF4000004F680008EF70000021
:106870000000000000000000511D0008B11F0008CA
:106880008D1600089116000839170008191F000816
:106890009516000899160008111E0008091700082F
:1068A000711E0008751B0008A11600089D1600083F
:1068B000412000080117000800000000000000004F
:1068C00000000000000000001D210008492400080D
:1068D0004924000821210008252100082921000859
:1068E0002D210008492400084924000849240008F3
:1068F000452100084921000861210008692100089C
:1069000075210008792100087D2100080425002058
:106910000100000000000000000000009D220008AF
:10692000B52200081D21000889210008E92200087D
:10693000A521000881230008B12300082D210008AB
:10694000A12100088D2100089D2100084521000893
:10695000492100086121000869210008752100080B
:10696000792100087D2100080000000000000000DF
:106970001D22000881210008852100080000000078
:10698000000000001125000819250008FD2400085A
:1069900005250008292500082D250008286E756C9E
:1069A0006C29000000000000AD29000885290008BE
:1069B00035290008512900086D2900084D444D4132
:1069C000206661696C757265000000000096000029
:1069D00000000000000000000000000000000000B7
:1069E0000000000000000000193100080531000817
:1069F000413100082D3100083931000825310008E7
:106A000011310008FD3000084D3100080000000081
:106A1000313200081D3200085932000845320008A2
:106A2000513200083D3200082932000815320008B2
:106A300065320008000000000100000000000000B6
:106A400063300000406A0008E8290020F82B00208D
:106A50004375626550696C6F740043756265526579
:106A6000642D424C002553455249414C25000000FD
:106A7000020000000000000051340008C13400088A
:106A800040004000A8440020B8440020020000005C
:106A900000000000030000000000000009350008AD
:106AA0000000000010000000C844002000000000AA
:106AB0000100000000000000B848002001010200B1
:106AC0002D4200083D410008D9410008BD410008A1
:106AD00043000000D86A000809024300020100C018
:106AE0003209040000010202010005240010010522
:106AF0002401000104240202052406000107058286
:106B0000030800FF09040100020A00000007050154
:106B10000240000007058102400000001200000052
:106B2000246B00081201100102000040AE2D591024
:106B300000020102030100000403090425424F4141
:106B400052442500437562655265645072696D61F7
:106B50007279003031323334353637383941424377
:106B60004445460000000020000002000200000032
:106B700000010030000000000000000000000024C0
:106B800000000800040000000004000000FC0000F9
:106B9000020000000000043000800000000000003F
:106BA0000000003800000100010000004000005219
:106BB00080000052C000005200010052400100520B
:106BC00080010052C00100520002005240020052F7
:106BD00080020052C00200520003005240030052E3
:106BE00080030052C0030052000400520000000065
:106BF000653600081D390008C9390008400040000A
:106C0000F0490020F049002001000000004A002067
:106C100080000000400100000800000000010000AA
:106C200000100000080000006D61696E0069646C6E
:106C3000650000000000802A00000000AAAAAAAA9D
:106C400000000024FFFF00000000000000A00A0078
:106C50002000200000000000AAAAAAAA000000004C
:106C6000FFFF000000090000000900000000000014
:106C700000000000AAAAAAAA00000000FFFF00006E
:106C800000000000000000000028800A0000000052
:106C9000AAAAAAAA00140000FFFF000000007007C3
:106CA000009099002000000000000000AAAAAAAAF3
:106CB00000000000FFFF00000009000000000000CD
:106CC0001000000000000000AAAAAAAA000000000C
:106CD000FBFF0000000000000000000001040000B5
:106CE00000000000AAAAAAAA00000000FEFF0000FF
:106CF0000000000000000000000000000000000094
:106D0000AAAAAAAA00000000FFFF000000000000DD
:106D1000000000000000000000000000AAAAAAAACB
:106D200000000000FFFF0000000000000000000065
:106D30000000000000000000AAAAAAAA00000000AB
:106D4000FFFF000000000000000000000000000045
:106D500000000000AAAAAAAA00000000FFFF00008D
:106D60000000000000000000B895FF7F0100000057
:106D70002D0400000000000000001A0000000002C6
:106D8000FF000000002C002024250020000000004F
:106D9000846700083F000000500400008F6700086F
:106DA0003F00000000960000000008009600000070
:106DB0000008000004000000386B0008000000001C
:106DC00000000000000000000000000000000000C3
:106DD0000000000068220020000000000000000009
:106DE00000000000000000000000000000000000A3
:106DF0000000000000000000000000000000000093
:106E00000000000000000000000000000000000082
:106E10000000000000000000000000000000000072
:106E20000000000000000000000000000000000062
:086E300000000000000000005A
:00000001FF
